00000000F02/12/200404:05

00001030I024       ABW200SR2BW         0000000000000015400BUNZL               

00002030I024       ABW250SR2BW         0000000000000009400BUNZL               

00003030I024       ABW300SR2BW         0000000000000006000BUNZL               

00004030I024       ABW330SR2BW         0000000000000010900BUNZL               

00005030I024       ABW330SR2UW         0000000000000002800BUNZL               

00006030I024       ABW400SR2BW         0000000000000004000BUNZL               

00007030I024       ACC80A4             0000000000000000000BUNZL               

00008030I024       ADO80A3             0000000000000180000BUNZL               

00009030I024       ADO80A4             0000000000001562500BUNZL               

00010030I024       ADP90A4             0000000000000157500BUNZL               

00011030I024       ADV75A4             0000000000001697500BUNZL               

00012030I024       AFT17DCR            0000000000000006000BUNZL               

00013030I024       AIP120A3PHR         0000000000000000001BUNZL               

00014030I024       AJR120610PM         0000000000000000000BUNZL               

00015030I024       AMG100B1            0000000000000010000BUNZL               

00016030I024       AMG100B1BP          0000000000000054000BUNZL               

00017030I024       AMG100B2            0000000000000012500BUNZL               

00018030I024       AMG100SR1           0000000000000013500BUNZL               

00019030I024       AMG100SR2           0000000000000087000BUNZL               

00020030I024       AMG100SR2BP         0000000000000108000BUNZL               

00021030I024       AMG110B1            0000000000000006500BUNZL               

00022030I024       AMG110SR2           0000000000000054000BUNZL               

00023030I024       AMG120B1            0000000000000036250BUNZL               

00024030I024       AMG120B1BP          0000000000000032000BUNZL               

00025030I024       AMG120SR1           0000000000000010750BUNZL               

00026030I024       AMG120SR1BP         0000000000000032000BUNZL               

00027030I024       AMG120SR2           0000000000000085250BUNZL               

00028030I024       AMG120SR2BP         0000000000000192000BUNZL               

00029030I024       AMG60SR2            0000000000000042500BUNZL               

00030030I024       AMG70B1BP           0000000000000168000BUNZL               

00031030I024       AMG70RA2            0000000000000015000BUNZL               

00032030I024       AMG70SR1            0000000000000037000BUNZL               

00033030I024       AMG70SR1BP          0000000000000098000BUNZL               

00034030I024       AMG70SR2            0000000000000041500BUNZL               

00035030I024       AMG70SR2BP          0000000000000140000BUNZL               

00036030I024       AMG80B1             0000000000000023500BUNZL               

00037030I024       AMG80B1BP           0000000000000108000BUNZL               

00038030I024       AMG80B2             0000000000000057000BUNZL               

00039030I024       AMG80RA2            0000000000000057500BUNZL               

00040030I024       AMG80RA2BP          0000000000000048000BUNZL               

00041030I024       AMG80SR1            0000000000000018000BUNZL               

00042030I024       AMG80SR1BP          0000000000000132000BUNZL               

00043030I024       AMG80SR2            0000000000000040000BUNZL               

00044030I024       AMG80SR2BP          0000000000000264000BUNZL               

00045030I024       AMG90B2             0000000000000037750BUNZL               

00046030I024       AMG90B2BP           0000000000000066000BUNZL               

00047030I024       AMG90SR2            0000000000000083500BUNZL               

00048030I024       AMG90SR2BP          0000000000000132000BUNZL               

00049030I024       AMP100SR2           0000000000000086500BUNZL               

00050030I024       AMP100SR2BP         0000000000000090000BUNZL               

00051030I024       AMP120SR2           0000000000000005000BUNZL               

00052030I024       AMP120SR2BP         0000000000000048000BUNZL               

00053030I024       AMP80SR2            0000000000000009500BUNZL               

00054030I024       AMP90SR2            0000000000000027750BUNZL               

00055030I024       APL100A4BW          0000000000000020500BUNZL               

00056030I024       APL100SR2BW         0000000000000016500BUNZL               

00057030I024       APL100SR2NA         0000000000000011500BUNZL               

00058030I024       APP1601230PS        0000000000000000007BUNZL               

00059030I024       APP1606130PG        0000000000000000001BUNZL               

00060030I024       APW100A4BW          0000000000000090000BUNZL               

00061030I024       APW100SR2BW         0000000000000011500BUNZL               

00062030I024       APW100SR2NA         0000000000000024000BUNZL               

00063030I024       APW100SR2UW         0000000000000017000BUNZL               

00064030I024       APW120A4BW          0000000000000010000BUNZL               

00065030I024       APW120SR2BW         0000000000000036500BUNZL               

00066030I024       APW120SR2UW         0000000000000008000BUNZL               

00067030I024       APW160SR2BW         0000000000000011500BUNZL               

00068030I024       APW90SR2BW          0000000000000012000BUNZL               

00069030I024       ARG115SR2           0000000000000023500BUNZL               

00070030I024       ARG115SR2BP         0000000000000100000BUNZL               

00071030I024       ARG130SR2           0000000000000000000BUNZL               

00072030I024       AVEDPS01            0000000000000000004BUNZL               

00073030I024       AWC80A3             0000000000000230000BUNZL               

00074030I024       AWC80A4             0000000000003657500BUNZL               

00075030I024       BCB935835           0000000000000003200BUNZL               

00076030I024       BCB976535           0000000000000000800BUNZL               

00077030I024       BONA1225            0000000000000000001BUNZL               

00078030I024       BONA1775            0000000000000000005BUNZL               

00079030I024       BONA2040            0000000000000000006BUNZL               

00080030I024       BONA2525            0000000000000000009BUNZL               

00081030I024       BONA2538            0000000000000000008BUNZL               

00082030I024       BONA254             0000000000000000010BUNZL               

00083030I024       BONA2550            0000000000000000013BUNZL               

00084030I024       BONA2565            0000000000000000007BUNZL               

00085030I024       BONA2575            0000000000000000005BUNZL               

00086030I024       BONA3050            0000000000000000011BUNZL               

00087030I024       BONA3060            0000000000000000005BUNZL               

00088030I024       BONA320             0000000000000000009BUNZL               

00089030I024       BONA375             0000000000000000005BUNZL               

00090030I024       BONA3838            0000000000000000013BUNZL               

00091030I024       BONA3850            0000000000000000007BUNZL               

00092030I024       BONA3865            0000000000000000009BUNZL               

00093030I024       BONA3875            0000000000000000008BUNZL               

00094030I024       BONA50100           0000000000000000009BUNZL               

00095030I024       BONA5050            0000000000000000012BUNZL               

00096030I024       BONA5075            0000000000000000017BUNZL               

00097030I024       BONA508             0000000000000000013BUNZL               

00098030I024       BONA630             0000000000000000003BUNZL               

00099030I024       BONA6388            0000000000000000016BUNZL               

00100030I024       BONA75110           0000000000000000013BUNZL               

00101030I024       BONA76152           0000000000000000020BUNZL               

00102030I024       BOND139194          0000000000000000003BUNZL               

00103030I024       BOND3054            0000000000000000018BUNZL               

00104030I024       BOND3396            0000000000000000007BUNZL               

00105030I024       BOND4190            0000000000000000006BUNZL               

00106030I024       BOND4596            0000000000000000007BUNZL               

00107030I024       BOND6896            0000000000000000014BUNZL               

00108030I024       BOND96139           0000000000000000005BUNZL               

00109030I024       BONL105149          0000000000000000071BUNZL               

00110030I024       BONL140210          0000000000000000010BUNZL               

00111030I024       BONL35105           0000000000000000018BUNZL               

00112030I024       BONL3570            0000000000000000010BUNZL               

00113030I024       BONL50105           0000000000000000012BUNZL               

00114030I024       BONL5070            0000000000000000005BUNZL               

00115030I024       BONL70105           0000000000000000036BUNZL               

00116030I024       BONLS143199         0000000000000000008BUNZL               

00117030I024       BONLS17145          0000000000000000010BUNZL               

00118030I024       BONLS199289         0000000000000000019BUNZL               

00119030I024       BONLS3464           0000000000000000011BUNZL               

00120030I024       BONLS3499           0000000000000000014BUNZL               

00121030I024       BONLS3863           0000000000000000100BUNZL               

00122030I024       BONLS3899           0000000000000000024BUNZL               

00123030I024       BONLS4663           0000000000000000008BUNZL               

00124030I024       BONLS4676           0000000000000000000BUNZL               

00125030I024       BONLS6372           0000000000000000008BUNZL               

00126030I024       BONLS6799           0000000000000000023BUNZL               

00127030I024       BONLS9399           0000000000000000016BUNZL               

00128030I024       BONLS99139          0000000000000000022BUNZL               

00129030I024       BONLSCD             0000000000000000024BUNZL               

00130030I024       BONM105148          0000000000000000011BUNZL               

00131030I024       BONM70100           0000000000000000005BUNZL               

00132030I024       BONM74105           0000000000000000006BUNZL               

00133030I024       BRP100SR2RA         0000000000000006500BUNZL               

00134030I024       BRW100A4BP          0000000000000560000BUNZL               

00135030I024       BSPA4DA             0000000000000000004BUNZL               

00136030I024       BSPA4FG             0000000000000000003BUNZL               

00137030I024       BSPA4FL             0000000000000000007BUNZL               

00138030I024       BSPA4FO             0000000000000000009BUNZL               

00139030I024       BSPA4WH             0000000000000000031BUNZL               

00140030I024       BSPSR2WH            0000000000000000008BUNZL               

00141030I024       CBPB2CO             0000000000000004000BUNZL               

00142030I024       CBPB2HG             0000000000000003250BUNZL               

00143030I024       CBPB2HGST           0000000000000003500BUNZL               

00144030I024       CBPB2MA             0000000000000005000BUNZL               

00145030I024       CBPB2MC             0000000000000003750BUNZL               

00146030I024       CBPB2MCRE           0000000000000001500BUNZL               

00147030I024       CBPB2MCST           0000000000000001750BUNZL               

00148030I024       CBPB2VX             0000000000000000500BUNZL               

00149030I024       CBPB2VXRE           0000000000000000000BUNZL               

00150030I024       CBPB2VXST           0000000000000001500BUNZL               

00151030I024       CBPSR2HG            0000000000000003250BUNZL               

00152030I024       CBPSR2MC            0000000000000000500BUNZL               

00153030I024       CBPSR2VX            0000000000000002000BUNZL               

00154030I024       CBX302222           0000000000000013075BUNZL               

00155030I024       CBX433022           0000000000000001100BUNZL               

00156030I024       CCC250SR2           0000000000000007000BUNZL               

00157030I024       CCC290SR2           0000000000000007600BUNZL               

00158030I024       CCC350SR2           0000000000000004200BUNZL               

00159030I024       CDI100SR2BW         0000000000000011750BUNZL               

00160030I024       CEN001              0000000000000030000BUNZL               

00161030I024       CEN002              0000000000000007000BUNZL               

00162030I024       CEN003              0000000000000007000BUNZL               

00163030I024       CEN010              0000000000000024000BUNZL               

00164030I024       CEN012              0000000000000140000BUNZL               

00165030I024       CEN013              0000000000000000000BUNZL               

00166030I024       CEN014              0000000000000055000BUNZL               

00167030I024       CEN020              0000000000000046000BUNZL               

00168030I024       CEN021              0000000000000010000BUNZL               

00169030I024       CEN022              0000000000000062000BUNZL               

00170030I024       CEN023              0000000000000057000BUNZL               

00171030I024       CEN024              0000000000000054000BUNZL               

00172030I024       CEN025              0000000000000299000BUNZL               

00173030I024       CEN026              0000000000000300000BUNZL               

00174030I024       CEN027              0000000000000065000BUNZL               

00175030I024       CEN028              0000000000000041000BUNZL               

00176030I024       CEN029              0000000000000053000BUNZL               

00177030I024       CEN030              0000000000000046000BUNZL               

00178030I024       CEN031              0000000000000010000BUNZL               

00179030I024       CEN032              0000000000000080000BUNZL               

00180030I024       CEN038              0000000000000000000BUNZL               

00181030I024       CEN039              0000000000000040000BUNZL               

00182030I024       CEN040              0000000000000048000BUNZL               

00183030I024       CEN041              0000000000000055000BUNZL               

00184030I024       CEN042              0000000000000000000BUNZL               

00185030I024       CEN045              0000000000000026500BUNZL               

00186030I024       CEN046              0000000000000206500BUNZL               

00187030I024       CEN047              0000000000000054000BUNZL               

00188030I024       CEN048              0000000000000205000BUNZL               

00189030I024       CEN049              0000000000000091000BUNZL               

00190030I024       CEN050              0000000000000253000BUNZL               

00191030I024       CEN051              0000000000000061500BUNZL               

00192030I024       CEN052              0000000000000141000BUNZL               

00193030I024       CEN053              0000000000000108500BUNZL               

00194030I024       CEN054              0000000000000011000BUNZL               

00195030I024       CEN055              0000000000000028000BUNZL               

00196030I024       CEN056              0000000000000092000BUNZL               

00197030I024       CEN057              0000000000000250000BUNZL               

00198030I024       CEN058              0000000000000112000BUNZL               

00199030I024       CEN059              0000000000000196000BUNZL               

00200030I024       CEN060              0000000000000162000BUNZL               

00201030I024       CEN061              0000000000000037000BUNZL               

00202030I024       CEN062              0000000000000020000BUNZL               

00203030I024       CEN063              0000000000000000000BUNZL               

00204030I024       CEN066              0000000000000001500BUNZL               

00205030I024       CEN067              0000000000000022000BUNZL               

00206030I024       CEN068              0000000000000013000BUNZL               

00207030I024       CEN069              0000000000000006000BUNZL               

00208030I024       CEN070              0000000000000014500BUNZL               

00209030I024       CEN071              0000000000000026000BUNZL               

00210030I024       CEN072              0000000000000024500BUNZL               

00211030I024       CEN073              0000000000000027000BUNZL               

00212030I024       CEN079              0000000000000010250BUNZL               

00213030I024       CEN080              0000000000000002000BUNZL               

00214030I024       CEN083              0000000000000005000BUNZL               

00215030I024       CEN091              0000000000000013250BUNZL               

00216030I024       CEN100              0000000000000077750BUNZL               

00217030I024       CEN101              0000000000000072750BUNZL               

00218030I024       CEN102              0000000000000021250BUNZL               

00219030I024       CEN103              0000000000000009500BUNZL               

00220030I024       CEN104              0000000000000050250BUNZL               

00221030I024       CEN105              0000000000000044500BUNZL               

00222030I024       CEN106              0000000000000154500BUNZL               

00223030I024       CEN107              0000000000000090250BUNZL               

00224030I024       CEN108              0000000000000035000BUNZL               

00225030I024       CEN109              0000000000000021000BUNZL               

00226030I024       CEN110              0000000000000012000BUNZL               

00227030I024       CEN111              0000000000000065500BUNZL               

00228030I024       CEN112              0000000000000086750BUNZL               

00229030I024       CEN113              0000000000000035500BUNZL               

00230030I024       CEN120              0000000000000008000BUNZL               

00231030I024       CEN121              0000000000000011750BUNZL               

00232030I024       CEN122              0000000000000019750BUNZL               

00233030I024       CEN123              0000000000000014250BUNZL               

00234030I024       CEN124              0000000000000003250BUNZL               

00235030I024       CEN130              0000000000000000000BUNZL               

00236030I024       CEN131              0000000000000005500BUNZL               

00237030I024       CEN132              0000000000000009250BUNZL               

00238030I024       CEN133              0000000000000005250BUNZL               

00239030I024       CEN140              -0000000000000030000BUNZL               

00240030I024       CEN141              0000000000000028000BUNZL               

00241030I024       CEN150              0000000000000006000BUNZL               

00242030I024       CEN160              0000000000000000000BUNZL               

00243030I024       CEN161              0000000000000009125BUNZL               

00244030I024       CEN162              0000000000000005000BUNZL               

00245030I024       CEN163              0000000000000007375BUNZL               

00246030I024       CEN170              0000000000000002500BUNZL               

00247030I024       CEN171              0000000000000003250BUNZL               

00248030I024       CHB200B1            0000000000000000000BUNZL               

00249030I024       CHB200SR1           0000000000000000000BUNZL               

00250030I024       CHB200SR2           0000000000000029250BUNZL               

00251030I024       CHB200SR2BP         0000000000000033000BUNZL               

00252030I024       CHB230B1            0000000000000007750BUNZL               

00253030I024       CHB230B1BP          0000000000000020000BUNZL               

00254030I024       CHB230B2            0000000000000000250BUNZL               

00255030I024       CHB230SR1           0000000000000014875BUNZL               

00256030I024       CHB230SR2           0000000000000014750BUNZL               

00257030I024       CHB230SR2BP         0000000000000009000BUNZL               

00258030I024       CHB250B1            0000000000000000000BUNZL               

00259030I024       CHB250SPA           0000000000000000000BUNZL               

00260030I024       CHB250SR1           0000000000000002250BUNZL               

00261030I024       CHB250SR1BP         0000000000000020000BUNZL               

00262030I024       CHB250SR2           0000000000000031500BUNZL               

00263030I024       CHB250SR2BP         0000000000000051000BUNZL               

00264030I024       CHB280B1            0000000000000003500BUNZL               

00265030I024       CHB280SR1           0000000000000006000BUNZL               

00266030I024       CHB280SR1BP         0000000000000007000BUNZL               

00267030I024       CHB280SR2           0000000000000001750BUNZL               

00268030I024       CHB300B1            0000000000000006000BUNZL               

00269030I024       CHB300B1BP          0000000000000013000BUNZL               

00270030I024       CHB300SPA           0000000000000000000BUNZL               

00271030I024       CHB300SR1           0000000000000002000BUNZL               

00272030I024       CHB300SR1BP         0000000000000033000BUNZL               

00273030I024       CHB300SR2           0000000000000000000BUNZL               

00274030I024       CHB300SR2BP         0000000000000007000BUNZL               

00275030I024       CHB350B1            0000000000000007000BUNZL               

00276030I024       CHB350B1BP          0000000000000005500BUNZL               

00277030I024       CHB350SR1           0000000000000001125BUNZL               

00278030I024       CHB350SR2           0000000000000016875BUNZL               

00279030I024       CHB350SR2BP         0000000000000005500BUNZL               

00280030I024       CHB400B1            0000000000000001800BUNZL               

00281030I024       CHB400SR1           0000000000000003600BUNZL               

00282030I024       CHB400SR1BP         0000000000000007500BUNZL               

00283030I024       CHB400SR2           0000000000000006000BUNZL               

00284030I024       CHB400SR2BP         0000000000000016500BUNZL               

00285030I024       CHL100SR2           0000000000000014500BUNZL               

00286030I024       CHP100B1            0000000000000014500BUNZL               

00287030I024       CHP100B1BP          0000000000000044000BUNZL               

00288030I024       CHP100RA1BP         0000000000000011500BUNZL               

00289030I024       CHP100SR1           0000000000000006250BUNZL               

00290030I024       CHP100SR1BP         0000000000000057500BUNZL               

00291030I024       CHP100SR2           0000000000000100500BUNZL               

00292030I024       CHP100SR2BP         0000000000000092000BUNZL               

00293030I024       CHP115B1            0000000000000023500BUNZL               

00294030I024       CHP115B1BP          0000000000000025500BUNZL               

00295030I024       CHP115RA1           0000000000000000250BUNZL               

00296030I024       CHP115SR1           0000000000000000250BUNZL               

00297030I024       CHP115SR1BP         0000000000000020000BUNZL               

00298030I024       CHP115SR2           0000000000000028000BUNZL               

00299030I024       CHP115SR2BP         0000000000000140000BUNZL               

00300030I024       CHP115TPA           0000000000000006500BUNZL               

00301030I024       CHP1306692          0000000000000020750BUNZL               

00302030I024       CHP1306692BP        0000000000000117000BUNZL               

00303030I024       CHP130B1            0000000000000003500BUNZL               

00304030I024       CHP130B1BP          0000000000000075000BUNZL               

00305030I024       CHP130RA1           0000000000000000250BUNZL               

00306030I024       CHP130SR1           0000000000000006000BUNZL               

00307030I024       CHP130SR2           0000000000000015000BUNZL               

00308030I024       CHP130SR2BP         0000000000000468000BUNZL               

00309030I024       CHP1506692          0000000000000000250BUNZL               

00310030I024       CHP150B1            0000000000000016750BUNZL               

00311030I024       CHP150B1BP          0000000000000039000BUNZL               

00312030I024       CHP150RA1           0000000000000001000BUNZL               

00313030I024       CHP150SR1           0000000000000009000BUNZL               

00314030I024       CHP150SR1BP         0000000000000008000BUNZL               

00315030I024       CHP150SR2           0000000000000016500BUNZL               

00316030I024       CHP170B1            0000000000000000000BUNZL               

00317030I024       CHP170B1BP          0000000000000006000BUNZL               

00318030I024       CHP170SPA           0000000000000001500BUNZL               

00319030I024       CHP170SR1           0000000000000000000BUNZL               

00320030I024       CHP170SR1BP         0000000000000058500BUNZL               

00321030I024       CHP170SR2           0000000000000027000BUNZL               

00322030I024       CHP170SR2BP         0000000000000070000BUNZL               

00323030I024       CHP90B1             0000000000000014750BUNZL               

00324030I024       CHP90B1BP           0000000000000033000BUNZL               

00325030I024       CHP90SR1            0000000000000019500BUNZL               

00326030I024       CHP90SR1BP          0000000000000013000BUNZL               

00327030I024       CHP90SR2            0000000000000046000BUNZL               

00328030I024       CHP90SR2BP          0000000000000104000BUNZL               

00329030I024       CHW100A4            0000000000000015000BUNZL               

00330030I024       CHW100A4IV          0000000000000045000BUNZL               

00331030I024       CHW100SR2           0000000000000012500BUNZL               

00332030I024       CHW100SR2BW         0000000000000012000BUNZL               

00333030I024       CHW250SR2IV         0000000000000001600BUNZL               

00334030I024       CHW90A4BW           0000000000000252500BUNZL               

00335030I024       CIB200SR2           0000000000000005800BUNZL               

00336030I024       CIB280SR2           0000000000000006300BUNZL               

00337030I024       CIB330SR2           0000000000000010000BUNZL               

00338030I024       CLP8018             0000000000000001000BUNZL               

00339030I024       CLP8023             0000000000000012000BUNZL               

00340030I024       CLP8027             0000000000000054000BUNZL               

00341030I024       CLP8028             0000000000000010000BUNZL               

00342030I024       CLP8029             0000000000000020000BUNZL               

00343030I024       CLP8030             0000000000000026000BUNZL               

00344030I024       CLP8415             0000000000000016000BUNZL               

00345030I024       CLP8480             0000000000000002000BUNZL               

00346030I024       CLW100SR2RA         0000000000000002500BUNZL               

00347030I024       CLW100SR2UW         0000000000000005500BUNZL               

00348030I024       CPC80A2             0000000000000000000BUNZL               

00349030I024       CRC80A4             0000000000000700000BUNZL               

00350030I024       CTB200SR2BL         0000000000000011200BUNZL               

00351030I024       CTB200SR2DA         0000000000000012000BUNZL               

00352030I024       CTB200SR2GO         0000000000000001200BUNZL               

00353030I024       CTB200SR2GR         0000000000000009200BUNZL               

00354030I024       CTB200SR2GY         0000000000000002000BUNZL               

00355030I024       CTB200SR2PI         0000000000000005200BUNZL               

00356030I024       CTB200SR2VE         0000000000000014200BUNZL               

00357030I024       CTB230SR2BL         0000000000000010600BUNZL               

00358030I024       CTB230SR2DA         0000000000000007400BUNZL               

00359030I024       CTB230SR2GO         0000000000000002200BUNZL               

00360030I024       CTB230SR2GR         0000000000000006600BUNZL               

00361030I024       CTB230SR2GY         0000000000000000000BUNZL               

00362030I024       CTB230SR2PI         0000000000000006600BUNZL               

00363030I024       CTB230SR2VE         0000000000000009000BUNZL               

00364030I024       CTB280SR2BL         0000000000000010400BUNZL               

00365030I024       CTB280SR2DA         0000000000000005800BUNZL               

00366030I024       CTB280SR2GO         0000000000000006800BUNZL               

00367030I024       CTB280SR2GR         0000000000000009400BUNZL               

00368030I024       CTB280SR2PI         0000000000000003200BUNZL               

00369030I024       CTB280SR2VE         0000000000000010000BUNZL               

00370030I024       CTP100SR1DA         0000000000000000250BUNZL               

00371030I024       CTP100SR2BL         0000000000000014500BUNZL               

00372030I024       CTP100SR2DA         0000000000000007000BUNZL               

00373030I024       CTP100SR2GR         0000000000000019500BUNZL               

00374030I024       CTP100SR2PI         0000000000000011500BUNZL               

00375030I024       CTP100SR2VE         0000000000000047500BUNZL               

00376030I024       CTP80SR1DA          0000000000000001500BUNZL               

00377030I024       CTP80SR2BL          0000000000000041500BUNZL               

00378030I024       CTP80SR2DA          0000000000000056500BUNZL               

00379030I024       CTP80SR2GR          0000000000000029500BUNZL               

00380030I024       CTP80SR2PI          0000000000000036000BUNZL               

00381030I024       CTP80SR2VE          0000000000000031500BUNZL               

00382030I024       CTW90A4VE           0000000000000010000BUNZL               

00383030I024       CVEDLNWLPS          0000000000000001500BUNZL               

00384030I024       CVEDLNWLPSWI        0000000000000005000BUNZL               

00385030I024       CVEDLNWWPS          0000000000000000000BUNZL               

00386030I024       CVEDLNWWPSWI        0000000000000000000BUNZL               

00387030I024       CVEDLVELPS          0000000000000001500BUNZL               

00388030I024       CVEDLVELPSWI        0000000000000003500BUNZL               

00389030I024       CVL100SR2BW         0000000000000005750BUNZL               

00390030I024       CVL100SR2NA         0000000000000005500BUNZL               

00391030I024       CVL100SR2VE         0000000000000009250BUNZL               

00392030I024       CVW100SR2BW         0000000000000004500BUNZL               

00393030I024       CVW100SR2IV         0000000000000007250BUNZL               

00394030I024       CVW100SR2NA         0000000000000001500BUNZL               

00395030I024       CVW100SR2VE         0000000000000004250BUNZL               

00396030I024       CWB200A4            0000000000000024200BUNZL               

00397030I024       CWB200POS           0000000000000001000BUNZL               

00398030I024       CWB200ROY           0000000000000010600BUNZL               

00399030I024       CWB200SR1           0000000000000008200BUNZL               

00400030I024       CWB200SR1BP         0000000000000008400BUNZL               

00401030I024       CWB200SR2           0000000000000032200BUNZL               

00402030I024       CWB200SR2BP         0000000000000162000BUNZL               

00403030I024       CWB230A4            0000000000000042200BUNZL               

00404030I024       CWB230POS           0000000000000008000BUNZL               

00405030I024       CWB230ROY           0000000000000005200BUNZL               

00406030I024       CWB230SR1           0000000000000005400BUNZL               

00407030I024       CWB230SR1BP         0000000000000012000BUNZL               

00408030I024       CWB230SR2           0000000000000042800BUNZL               

00409030I024       CWB230SR2BP         0000000000000046000BUNZL               

00410030I024       CWB230SR2PC         0000000000000000000BUNZL               

00411030I024       CWB250SR2           0000000000000010000BUNZL               

00412030I024       CWB280A4            0000000000000024000BUNZL               

00413030I024       CWB280POS           0000000000000005600BUNZL               

00414030I024       CWB280ROY           0000000000000005600BUNZL               

00415030I024       CWB280SR1           0000000000000004400BUNZL               

00416030I024       CWB280SR2           0000000000000031200BUNZL               

00417030I024       CWB280SR2BP         0000000000000015200BUNZL               

00418030I024       CWB380ROY           0000000000000011900BUNZL               

00419030I024       CWB380SR1           0000000000000008100BUNZL               

00420030I024       CWB380SR2           0000000000000012100BUNZL               

00421030I024       CWP100B1            0000000000000017500BUNZL               

00422030I024       CWP100B1BP          0000000000000045000BUNZL               

00423030I024       CWP100B2            0000000000000036500BUNZL               

00424030I024       CWP100SR1           0000000000000028500BUNZL               

00425030I024       CWP100SR1BP         0000000000000324000BUNZL               

00426030I024       CWP100SR2           0000000000000119500BUNZL               

00427030I024       CWP100SR2BP         0000000000000234000BUNZL               

00428030I024       CWP115B1            0000000000000037500BUNZL               

00429030I024       CWP115B1BP          0000000000000097500BUNZL               

00430030I024       CWP115SR1           0000000000000030750BUNZL               

00431030I024       CWP115SR1BP         0000000000000007500BUNZL               

00432030I024       CWP115SR2           0000000000000077000BUNZL               

00433030I024       CWP115SR2BP         0000000000000060000BUNZL               

00434030I024       CWP135B1BP          0000000000000066000BUNZL               

00435030I024       CWP135SR1           0000000000000018500BUNZL               

00436030I024       CWP135SR1BP         0000000000000036000BUNZL               

00437030I024       CWP135SR2           0000000000000066250BUNZL               

00438030I024       CWP135SR2BP         0000000000000024000BUNZL               

00439030I024       CWP70RA2BP          0000000000000100000BUNZL               

00440030I024       CWP70SR1BP          0000000000000050000BUNZL               

00441030I024       CWP70SR2            0000000000000033500BUNZL               

00442030I024       CWP70SR2BP          0000000000000050000BUNZL               

00443030I024       CWP80B1             0000000000000010250BUNZL               

00444030I024       CWP80B2             0000000000000006000BUNZL               

00445030I024       CWP80RA1BP          0000000000000121000BUNZL               

00446030I024       CWP80RA2            0000000000000018000BUNZL               

00447030I024       CWP80RA2BP          0000000000000044000BUNZL               

00448030I024       CWP80SR1            0000000000000020000BUNZL               

00449030I024       CWP80SR1BP          0000000000000187000BUNZL               

00450030I024       CWP80SR2            0000000000000153000BUNZL               

00451030I024       CWP80SR2BP          0000000000000352000BUNZL               

00452030I024       CWP90B1BP           0000000000000040000BUNZL               

00453030I024       CWP90B2             0000000000000023000BUNZL               

00454030I024       CWP90B2BP           0000000000000040000BUNZL               

00455030I024       CWP90SR1            0000000000000016000BUNZL               

00456030I024       CWP90SR1BP          0000000000000540000BUNZL               

00457030I024       CWP90SR2            0000000000000076000BUNZL               

00458030I024       CWP90SR2BP          0000000000000080000BUNZL               

00459030I024       CWS104SR2UW         0000000000000017000BUNZL               

00460030I024       CWW100SR2           0000000000000014000BUNZL               

00461030I024       CWW100SR2UW         0000000000000010500BUNZL               

00462030I024       CWW90SR2UW          0000000000000020500BUNZL               

00463030I024       CXW100SR2WH         0000000000000010500BUNZL               

00464030I024       CXW85A4PW           0000000000000065000BUNZL               

00465030I024       CXW85A4WH           0000000000000030000BUNZL               

00466030I024       CXW85RA2WH          0000000000000000000BUNZL               

00467030I024       CXW85SR2IW          0000000000000026000BUNZL               

00468030I024       CXW85SR2WH          0000000000000005000BUNZL               

00469030I024       DAP100SR2NR         0000000000000000000BUNZL               

00470030I024       DAR100841X100AP     0000000000000000001BUNZL               

00471030I024       DAR100841X100SO     0000000000000000002BUNZL               

00472030I024       DEEC4BWSS           0000000000000016500BUNZL               

00473030I024       DEEC5BWSS           0000000000000017250BUNZL               

00474030I024       DEEDLBWSS           0000000000000039000BUNZL               

00475030I024       DEEDLBWSSWI         0000000000000025000BUNZL               

00476030I024       DEEDLIVSS           0000000000000013500BUNZL               

00477030I024       DGB1150SR1          0000000000000000030BUNZL               

00478030I024       DGB305SR1           0000000000000000018BUNZL               

00479030I024       DGB305SR2           0000000000000000025BUNZL               

00480030I024       DGB420SR1           0000000000000000013BUNZL               

00481030I024       DGB420SR2           0000000000000000063BUNZL               

00482030I024       DGB510SR1           0000000000000000009BUNZL               

00483030I024       DGB510SR2           0000000000000000039BUNZL               

00484030I024       DGB625A4            0000000000000000023BUNZL               

00485030I024       DGB625SR1           0000000000000000030BUNZL               

00486030I024       DGB625SR2           0000000000000000005BUNZL               

00487030I024       DGB750A4            0000000000000000010BUNZL               

00488030I024       DGB750SR1           0000000000000000022BUNZL               

00489030I024       DGB750SR2           0000000000000000061BUNZL               

00490030I024       DGB935SR1           0000000000000000010BUNZL               

00491030I024       DGB935SR2           0000000000000000023BUNZL               

00492030I024       DIS100A4BW          0000000000000040000BUNZL               

00493030I024       DIS100A4IV          0000000000000030000BUNZL               

00494030I024       DIS100SR2BW         0000000000000037000BUNZL               

00495030I024       DIS100SR2IV         0000000000000013500BUNZL               

00496030I024       DIS120SR2BW         0000000000000016500BUNZL               

00497030I024       DIS250SR2IV         0000000000000000000BUNZL               

00498030I024       DIS320SR2BW         0000000000000002875BUNZL               

00499030I024       DIS90SR2BW          0000000000000018500BUNZL               

00500030I024       DOF100A3            0000000000000080000BUNZL               

00501030I024       DOF100A4            0000000000000398000BUNZL               

00502030I024       DOF100SR1           0000000000000010750BUNZL               

00503030I024       DOF100SR1BP         0000000000000126000BUNZL               

00504030I024       DOF100SR2           0000000000000228000BUNZL               

00505030I024       DOF100SR2BP         0000000000000198000BUNZL               

00506030I024       DOF80A3             0000000000000355000BUNZL               

00507030I024       DOF80A4             0000000000002285000BUNZL               

00508030I024       DOF80A42H           0000000000000000000BUNZL               

00509030I024       DOF80A44H           0000000000000612500BUNZL               

00510030I024       DOF80SR1BP          0000000000000044000BUNZL               

00511030I024       DOF80SR2            0000000000000119000BUNZL               

00512030I024       DOF80SR2BP          0000000000000176000BUNZL               

00513030I024       DOF90A3             0000000000000096000BUNZL               

00514030I024       DOF90A4             0000000000000360000BUNZL               

00515030I024       DOF90SR1            0000000000000010000BUNZL               

00516030I024       DOF90SR2            0000000000000105000BUNZL               

00517030I024       DOF90SR2BP          0000000000000200000BUNZL               

00518030I024       DPU120SR2BW         0000000000000010500BUNZL               

00519030I024       DUC80A3             0000000000000165000BUNZL               

00520030I024       DUC80A4             0000000000000935000BUNZL               

00521030I024       DUD100A3            0000000000000031500BUNZL               

00522030I024       DUD100A4            0000000000000188000BUNZL               

00523030I024       DUD100SR2           0000000000000075000BUNZL               

00524030I024       DUD100SR3           0000000000000031500BUNZL               

00525030I024       DUD120A3            0000000000000033000BUNZL               

00526030I024       DUD120A4            0000000000000060000BUNZL               

00527030I024       DUD120SR2           0000000000000048500BUNZL               

00528030I024       DUD120SR3           0000000000000028500BUNZL               

00529030I024       DUD160A3            0000000000000035000BUNZL               

00530030I024       DUD160A4            0000000000000039000BUNZL               

00531030I024       DUD90A3             0000000000000024000BUNZL               

00532030I024       DUD90A4             0000000000000145000BUNZL               

00533030I024       DUD90SR2            0000000000000011000BUNZL               

00534030I024       DUO100A3            0000000000000064000BUNZL               

00535030I024       DUO100A4            0000000000000179500BUNZL               

00536030I024       DUO100SR1           0000000000000010250BUNZL               

00537030I024       DUO100SR2           0000000000000114500BUNZL               

00538030I024       DUO100SR2BP         0000000000000090000BUNZL               

00539030I024       DUO120SR2           0000000000000026000BUNZL               

00540030I024       DUO160A4            0000000000000052000BUNZL               

00541030I024       DUO160SR2           0000000000000015000BUNZL               

00542030I024       DUO80A3             0000000000000095000BUNZL               

00543030I024       DUO80A4             0000000000000172500BUNZL               

00544030I024       DUO80SR2            0000000000000053000BUNZL               

00545030I024       DUO90A3             0000000000000048000BUNZL               

00546030I024       DUO90A4             0000000000000214000BUNZL               

00547030I024       DUO90SR2            0000000000000063500BUNZL               

00548030I024       DUT160A4GR          0000000000000000000BUNZL               

00549030I024       DUT80A4BL           0000000000000047500BUNZL               

00550030I024       DUT80A4DA           0000000000000102500BUNZL               

00551030I024       DUT80A4GR           0000000000000107000BUNZL               

00552030I024       DUT80A4PI           0000000000000032500BUNZL               

00553030I024       DUT80A4VE           0000000000000030000BUNZL               

00554030I024       ECENV401            0000000000000000000BUNZL               

00555030I024       ECENV412            0000000000000000000BUNZL               

00556030I024       ECENV413            0000000000000000000BUNZL               

00557030I024       ECENV423            0000000000000000000BUNZL               

00558030I024       ECENV424            0000000000000000000BUNZL               

00559030I024       EDUA4RULE           0000000000000089000BUNZL               

00560030I024       EVB100SR1           0000000000000013500BUNZL               

00561030I024       EVB100SR2           0000000000000005500BUNZL               

00562030I024       EVB100SR2BP         0000000000000064000BUNZL               

00563030I024       EVB80A3             0000000000000040000BUNZL               

00564030I024       EVB80A4             0000000000000532500BUNZL               

00565030I024       EVB80SR2            0000000000000034500BUNZL               

00566030I024       EVB80SR2BP          0000000000000080000BUNZL               

00567030I024       EVB90SR2            0000000000000017500BUNZL               

00568030I024       EVB90SR2BP          0000000000000036000BUNZL               

00569030I024       EVO80A3             0000000000000057500BUNZL               

00570030I024       EVO80A4             0000000000001062500BUNZL               

00571030I024       FCB160A4AQ          0000000000000026500BUNZL               

00572030I024       FCB160A4BL          0000000000000033750BUNZL               

00573030I024       FCB160A4CO          0000000000000028750BUNZL               

00574030I024       FCB160A4CON         0000000000000046500BUNZL               

00575030I024       FCB160A4CR          0000000000000050500BUNZL               

00576030I024       FCB160A4DA          0000000000000063250BUNZL               

00577030I024       FCB160A4EM          0000000000000050250BUNZL               

00578030I024       FCB160A4GO          0000000000000019250BUNZL               

00579030I024       FCB160A4GR          0000000000000046500BUNZL               

00580030I024       FCB160A4GY          0000000000000040000BUNZL               

00581030I024       FCB160A4IV          0000000000000010250BUNZL               

00582030I024       FCB160A4LA          0000000000000049500BUNZL               

00583030I024       FCB160A4LI          0000000000000000250BUNZL               

00584030I024       FCB160A4MA          0000000000000058250BUNZL               

00585030I024       FCB160A4OR          0000000000000032500BUNZL               

00586030I024       FCB160A4PE          0000000000000043250BUNZL               

00587030I024       FCB160A4PI          0000000000000023000BUNZL               

00588030I024       FCB160A4SC          0000000000000043500BUNZL               

00589030I024       FCB160A4SN          0000000000000046000BUNZL               

00590030I024       FCB160A4WE          0000000000000029000BUNZL               

00591030I024       FCB160A4YE          0000000000000042000BUNZL               

00592030I024       FCB200A4LI          0000000000000028200BUNZL               

00593030I024       FCP100A3BL          0000000000000033500BUNZL               

00594030I024       FCP100A3CR          0000000000000031500BUNZL               

00595030I024       FCP100A3DA          0000000000000000000BUNZL               

00596030I024       FCP100A3GO          0000000000000000250BUNZL               

00597030I024       FCP100A3GR          0000000000000036000BUNZL               

00598030I024       FCP100A3IV          0000000000000040500BUNZL               

00599030I024       FCP100A3PI          0000000000000010000BUNZL               

00600030I024       FCP100A3WE          0000000000000024000BUNZL               

00601030I024       FCP100A3YE          0000000000000024750BUNZL               

00602030I024       FCP100SR2BL         0000000000000021500BUNZL               

00603030I024       FCP100SR2CR         0000000000000031500BUNZL               

00604030I024       FCP100SR2DA         0000000000000024000BUNZL               

00605030I024       FCP100SR2GR         0000000000000013000BUNZL               

00606030I024       FCP100SR2GY         0000000000000007000BUNZL               

00607030I024       FCP100SR2MZ         0000000000000016500BUNZL               

00608030I024       FCP100SR2PI         0000000000000011000BUNZL               

00609030I024       FCP100SR2YE         0000000000000009000BUNZL               

00610030I024       FCP120SR2AQ         0000000000000008750BUNZL               

00611030I024       FCP120SR2BL         0000000000000012500BUNZL               

00612030I024       FCP120SR2CON        0000000000000005750BUNZL               

00613030I024       FCP120SR2CR         0000000000000008000BUNZL               

00614030I024       FCP120SR2DA         0000000000000016250BUNZL               

00615030I024       FCP120SR2EM         0000000000000011750BUNZL               

00616030I024       FCP120SR2GO         0000000000000006750BUNZL               

00617030I024       FCP120SR2GR         0000000000000007250BUNZL               

00618030I024       FCP120SR2IV         0000000000000016000BUNZL               

00619030I024       FCP120SR2LA         0000000000000014250BUNZL               

00620030I024       FCP120SR2LI         0000000000000013750BUNZL               

00621030I024       FCP120SR2MI         0000000000000006250BUNZL               

00622030I024       FCP120SR2MZ         0000000000000005500BUNZL               

00623030I024       FCP120SR2OR         0000000000000015500BUNZL               

00624030I024       FCP120SR2PE         0000000000000016500BUNZL               

00625030I024       FCP120SR2PI         0000000000000008500BUNZL               

00626030I024       FCP120SR2SC         0000000000000013250BUNZL               

00627030I024       FCP120SR2SN         0000000000000011750BUNZL               

00628030I024       FCP120SR2WE         0000000000000013750BUNZL               

00629030I024       FCP120SR2YE         0000000000000001000BUNZL               

00630030I024       FCP80A3BL           0000000000000030000BUNZL               

00631030I024       FCP80A3CR           0000000000000027500BUNZL               

00632030I024       FCP80A3DA           0000000000000050000BUNZL               

00633030I024       FCP80A3GO           0000000000000001000BUNZL               

00634030I024       FCP80A3GR           0000000000000057500BUNZL               

00635030I024       FCP80A3IV           0000000000000007500BUNZL               

00636030I024       FCP80A3PI           0000000000000022500BUNZL               

00637030I024       FCP80A3YE           0000000000000087500BUNZL               

00638030I024       FCP80A4AQ           0000000000000077500BUNZL               

00639030I024       FCP80A4BB           0000000000000085000BUNZL               

00640030I024       FCP80A4BC           0000000000000035000BUNZL               

00641030I024       FCP80A4BG           0000000000000100000BUNZL               

00642030I024       FCP80A4BL           0000000000000170000BUNZL               

00643030I024       FCP80A4CO           0000000000000060000BUNZL               

00644030I024       FCP80A4CON          0000000000000037500BUNZL               

00645030I024       FCP80A4CR           0000000000000152500BUNZL               

00646030I024       FCP80A4DA           0000000000000067500BUNZL               

00647030I024       FCP80A4EM           0000000000000112500BUNZL               

00648030I024       FCP80A4GO           0000000000000067500BUNZL               

00649030I024       FCP80A4GR           0000000000000315000BUNZL               

00650030I024       FCP80A4GY           0000000000000102500BUNZL               

00651030I024       FCP80A4IV           0000000000000175000BUNZL               

00652030I024       FCP80A4LA           0000000000000035000BUNZL               

00653030I024       FCP80A4LI           0000000000000136000BUNZL               

00654030I024       FCP80A4MA           0000000000000065000BUNZL               

00655030I024       FCP80A4MZ           0000000000000087500BUNZL               

00656030I024       FCP80A4OR           0000000000000153000BUNZL               

00657030I024       FCP80A4PE           0000000000000145000BUNZL               

00658030I024       FCP80A4PI           0000000000000187500BUNZL               

00659030I024       FCP80A4SC           0000000000000112000BUNZL               

00660030I024       FCP80A4ST           0000000000000005000BUNZL               

00661030I024       FCP80A4WE           0000000000000117500BUNZL               

00662030I024       FCP80A4YE           0000000000000517500BUNZL               

00663030I024       FCP80SR2AQ          0000000000000010500BUNZL               

00664030I024       FCP80SR2BL          0000000000000022500BUNZL               

00665030I024       FCP80SR2CO          0000000000000009000BUNZL               

00666030I024       FCP80SR2CON         0000000000000005000BUNZL               

00667030I024       FCP80SR2CR          0000000000000040000BUNZL               

00668030I024       FCP80SR2DA          0000000000000032000BUNZL               

00669030I024       FCP80SR2EM          0000000000000003500BUNZL               

00670030I024       FCP80SR2GO          0000000000000028500BUNZL               

00671030I024       FCP80SR2GR          0000000000000020500BUNZL               

00672030I024       FCP80SR2GY          0000000000000005500BUNZL               

00673030I024       FCP80SR2IV          0000000000000030500BUNZL               

00674030I024       FCP80SR2LA          0000000000000003500BUNZL               

00675030I024       FCP80SR2LI          0000000000000023000BUNZL               

00676030I024       FCP80SR2MA          0000000000000009000BUNZL               

00677030I024       FCP80SR2MZ          0000000000000006000BUNZL               

00678030I024       FCP80SR2OR          0000000000000023000BUNZL               

00679030I024       FCP80SR2PE          0000000000000027500BUNZL               

00680030I024       FCP80SR2PI          0000000000000020500BUNZL               

00681030I024       FCP80SR2SC          0000000000000000500BUNZL               

00682030I024       FCP80SR2SN          0000000000000003000BUNZL               

00683030I024       FCP80SR2ST          0000000000000023500BUNZL               

00684030I024       FCP80SR2WE          0000000000000030500BUNZL               

00685030I024       FCP80SR2YE          0000000000000053500BUNZL               

00686030I024       FIL18047X71BU       0000000000000000500BUNZL               

00687030I024       FIL180DCRBU         0000000000000001125BUNZL               

00688030I024       FIL180ROYBU         0000000000000005000BUNZL               

00689030I024       FIL22547X71BU       0000000000000001375BUNZL               

00690030I024       FIL225DCRBU         0000000000000000000BUNZL               

00691030I024       FIL225ROYBU         0000000000000002125BUNZL               

00692030I024       FIL27047X71BU       0000000000000001500BUNZL               

00693030I024       FIL270DCRBL         0000000000000002625BUNZL               

00694030I024       FIL270DCRBU         0000000000000001250BUNZL               

00695030I024       FIL270ROYBU         0000000000000000375BUNZL               

00696030I024       FIL31547X71BU       0000000000000000125BUNZL               

00697030I024       FIL315DCRBU         0000000000000002375BUNZL               

00698030I024       FIL485DCEOR         0000000000000001050BUNZL               

00699030I024       FIL485DCEPI         0000000000000000450BUNZL               

00700030I024       FIL485DCEYE         0000000000000000400BUNZL               

00701030I024       FPBB2HG             0000000000000001000BUNZL               

00702030I024       FPBB2HGBD           0000000000000000450BUNZL               

00703030I024       FPBB2MC             0000000000000001250BUNZL               

00704030I024       FPBB2MCRE           0000000000000012500BUNZL               

00705030I024       FPBB2OVGC           0000000000000001800BUNZL               

00706030I024       FPBB2OVMW           0000000000000001600BUNZL               

00707030I024       FPBB2VX             0000000000000002750BUNZL               

00708030I024       FPBB2VXDF           0000000000000000750BUNZL               

00709030I024       FPBSR2LA            0000000000000006250BUNZL               

00710030I024       FPBSR2MC            0000000000000002000BUNZL               

00711030I024       FRC80A4             0000000000000000000BUNZL               

00712030I024       FRO100SR2           0000000000000244000BUNZL               

00713030I024       FRO100SR2BP         0000000000000630000BUNZL               

00714030I024       FRO80SR2            0000000000000285000BUNZL               

00715030I024       FRO80SR2BP          0000000000000902000BUNZL               

00716030I024       FRO90SR2            0000000000000169500BUNZL               

00717030I024       FRO90SR2BP          0000000000000280000BUNZL               

00718030I024       GBL115DMEAZ         0000000000000000250BUNZL               

00719030I024       GBL115RA2AZ         0000000000000001500BUNZL               

00720030I024       GCP80A3             0000000000000260000BUNZL               

00721030I024       GCP80A4             0000000000002605000BUNZL               

00722030I024       GPM100B1            0000000000000003000BUNZL               

00723030I024       GPM100B1BP          0000000000000036000BUNZL               

00724030I024       GPM100B2            0000000000000031000BUNZL               

00725030I024       GPM100SR1           0000000000000012000BUNZL               

00726030I024       GPM100SR1BP         0000000000000018000BUNZL               

00727030I024       GPM100SR2           0000000000000052500BUNZL               

00728030I024       GPM100SR2BP         0000000000000018000BUNZL               

00729030I024       GPM115B2            0000000000000031500BUNZL               

00730030I024       GPM115RA1           0000000000000000750BUNZL               

00731030I024       GPM115RA1BP         0000000000000016000BUNZL               

00732030I024       GPM115SR1           0000000000000000000BUNZL               

00733030I024       GPM115SR1BP         0000000000000048000BUNZL               

00734030I024       GPM115SR2           0000000000000051000BUNZL               

00735030I024       GPM115SR2BP         0000000000000064000BUNZL               

00736030I024       GPM130SR1           0000000000000021500BUNZL               

00737030I024       GPM130SR1BP         0000000000000056000BUNZL               

00738030I024       GPM130SR2           0000000000000052000BUNZL               

00739030I024       GPM130SR2BP         0000000000000084000BUNZL               

00740030I024       GPM150B1            0000000000000021250BUNZL               

00741030I024       GPM150B1BP          0000000000000030000BUNZL               

00742030I024       GPM150SR1           0000000000000008500BUNZL               

00743030I024       GPM150SR1BP         0000000000000036000BUNZL               

00744030I024       GPM150SR2           0000000000000048250BUNZL               

00745030I024       GPM150SR2BP         0000000000000048000BUNZL               

00746030I024       GPM170SR1BP         0000000000000110000BUNZL               

00747030I024       GPM170SR2           0000000000000007750BUNZL               

00748030I024       GPM200SR2           0000000000000038500BUNZL               

00749030I024       GPM200SR2BP         0000000000000027000BUNZL               

00750030I024       GPM230SR2           0000000000000000750BUNZL               

00751030I024       GPM250SR2           0000000000000023750BUNZL               

00752030I024       GPM70SR1BP          0000000000000065000BUNZL               

00753030I024       GPM80B1             0000000000000026500BUNZL               

00754030I024       GPM80B1BP           0000000000000022000BUNZL               

00755030I024       GPM80SR1            0000000000000030500BUNZL               

00756030I024       GPM80SR1BP          0000000000000103500BUNZL               

00757030I024       GPM80SR2            0000000000000016000BUNZL               

00758030I024       GPM90SR1            0000000000000007000BUNZL               

00759030I024       GPM90SR1BP          0000000000000040000BUNZL               

00760030I024       GPM90SR2            0000000000000060000BUNZL               

00761030I024       HLT80A4BL           0000000000000090000BUNZL               

00762030I024       HLT80A4CR           0000000000000045000BUNZL               

00763030I024       HLT80A4GR           0000000000000045000BUNZL               

00764030I024       HLT80A4PI           0000000000000070000BUNZL               

00765030I024       HLT80A4YE           0000000000000032500BUNZL               

00766030I024       HLT80SR2GR          0000000000000008000BUNZL               

00767030I024       HLW100SR2WH         0000000000000013000BUNZL               

00768030I024       HLW180SR2WH         0000000000000008800BUNZL               

00769030I024       HLW80A3WH           0000000000000046000BUNZL               

00770030I024       HLW80A4WH           0000000000000057500BUNZL               

00771030I024       HLW80SR2WH          0000000000000079500BUNZL               

00772030I024       HTB200SR2OY         0000000000000000500BUNZL               

00773030I024       HTB230SR2OY         0000000000000001400BUNZL               

00774030I024       HTB230SR2VE         0000000000000000600BUNZL               

00775030I024       HTB300SR2VE         0000000000000000625BUNZL               

00776030I024       HTB380SR2OY         0000000000000000250BUNZL               

00777030I024       HTB380SR2VE         0000000000000000875BUNZL               

00778030I024       HTC100SR2OY         0000000000000002000BUNZL               

00779030I024       HTC100SR2VE         0000000000000001000BUNZL               

00780030I024       HTC120SR2OY         0000000000000002000BUNZL               

00781030I024       HTC80SR2VE          0000000000000002000BUNZL               

00782030I024       HTC90SR2IV          0000000000000000500BUNZL               

00783030I024       HVW2302338BP        0000000000000088400BUNZL               

00784030I024       HWB230SR2BW         0000000000000002000BUNZL               

00785030I024       HWB300SR2BW         0000000000000002000BUNZL               

00786030I024       HWC100SR2BW         0000000000000003000BUNZL               

00787030I024       IJP120610SA         0000000000000000015BUNZL               

00788030I024       IJP120914SA         0000000000000000005BUNZL               

00789030I024       IJP160610SA         0000000000000000005BUNZL               

00790030I024       IJP160914SA         0000000000000000003BUNZL               

00791030I024       IJP90914SA          0000000000000000018BUNZL               

00792030I024       IKS300SR2           0000000000000001000BUNZL               

00793030I024       IKS300SR2IV         0000000000000000125BUNZL               

00794030I024       ILC80A3             0000000000000130000BUNZL               

00795030I024       ILC80A4             0000000000000640000BUNZL               

00796030I024       ISC75A4             0000000000005970000BUNZL               

00797030I024       KKC80A4             0000000000000152500BUNZL               

00798030I024       KRA90115X140        0000000000000002000BUNZL               

00799030I024       KRA90600X25         0000000000000000011BUNZL               

00800030I024       KRA90700X115        0000000000000002500BUNZL               

00801030I024       KRA90750X25         0000000000000000006BUNZL               

00802030I024       KRA90900X1150       0000000000000003500BUNZL               

00803030I024       KRA90900X25         0000000000000000020BUNZL               

00804030I024       LAB200B1            0000000000000010500BUNZL               

00805030I024       LAB200B2            0000000000000017000BUNZL               

00806030I024       LAB200SR1           0000000000000008875BUNZL               

00807030I024       LAB200SR1BP         0000000000000030000BUNZL               

00808030I024       LAB200SR2           0000000000000133000BUNZL               

00809030I024       LAB200SR2BP         0000000000000036000BUNZL               

00810030I024       LAB250B1BP          0000000000000012000BUNZL               

00811030I024       LAB250B2            0000000000000019750BUNZL               

00812030I024       LAB250SR1           0000000000000015125BUNZL               

00813030I024       LAB250SR2           0000000000000080250BUNZL               

00814030I024       LAB250SR2BP         0000000000000036000BUNZL               

00815030I024       LAB300B2            0000000000000018300BUNZL               

00816030I024       LAB300SR1           0000000000000007125BUNZL               

00817030I024       LAB300SR1BP         0000000000000016000BUNZL               

00818030I024       LAB300SR2           0000000000000095375BUNZL               

00819030I024       LAB300SR2BP         0000000000000080000BUNZL               

00820030I024       LAB350B2            0000000000000015125BUNZL               

00821030I024       LAB350SR1           0000000000000004625BUNZL               

00822030I024       LAB350SR2           0000000000000003250BUNZL               

00823030I024       LAM150A3            0000000000000001600BUNZL               

00824030I024       LAM150A4            0000000000000007700BUNZL               

00825030I024       LAM250A3            0000000000000007900BUNZL               

00826030I024       LAM250A4            0000000000000010800BUNZL               

00827030I024       LAP100B2            0000000000000003000BUNZL               

00828030I024       LAP100B2BP          0000000000000040000BUNZL               

00829030I024       LAP100RA1BP         0000000000000026000BUNZL               

00830030I024       LAP100SR1           0000000000000069250BUNZL               

00831030I024       LAP100SR1BP         0000000000000143000BUNZL               

00832030I024       LAP100SR2           0000000000000080500BUNZL               

00833030I024       LAP100SR2BP         0000000000000130000BUNZL               

00834030I024       LAP115B1            0000000000000024250BUNZL               

00835030I024       LAP115B1BP          0000000000000009000BUNZL               

00836030I024       LAP115B2            0000000000000040000BUNZL               

00837030I024       LAP115B2BP          0000000000000017000BUNZL               

00838030I024       LAP115RA1BP         0000000000000088000BUNZL               

00839030I024       LAP115SR1           0000000000000038000BUNZL               

00840030I024       LAP115SR1BP         0000000000000044000BUNZL               

00841030I024       LAP115SR2           0000000000000057000BUNZL               

00842030I024       LAP115SR2BP         0000000000000230000BUNZL               

00843030I024       LAP130B1            0000000000000017500BUNZL               

00844030I024       LAP130B1BP          0000000000000024000BUNZL               

00845030I024       LAP130B2            0000000000000046500BUNZL               

00846030I024       LAP130B2BP          0000000000000030000BUNZL               

00847030I024       LAP130RA1BP         0000000000000140000BUNZL               

00848030I024       LAP130SR1           0000000000000022000BUNZL               

00849030I024       LAP130SR1BP         0000000000000050000BUNZL               

00850030I024       LAP130SR2           0000000000000093500BUNZL               

00851030I024       LAP130SR2BP         0000000000000240000BUNZL               

00852030I024       LAP150B1            0000000000000011500BUNZL               

00853030I024       LAP150B1BP          0000000000000042000BUNZL               

00854030I024       LAP150B2            0000000000000000750BUNZL               

00855030I024       LAP150SR1           0000000000000057500BUNZL               

00856030I024       LAP150SR1BP         0000000000000072000BUNZL               

00857030I024       LAP150SR2           0000000000000077500BUNZL               

00858030I024       LAP150SR2BP         0000000000000017000BUNZL               

00859030I024       LAP170B1            0000000000000020875BUNZL               

00860030I024       LAP170B2            0000000000000034250BUNZL               

00861030I024       LAP170SR1           0000000000000032250BUNZL               

00862030I024       LAP170SR1BP         0000000000000022500BUNZL               

00863030I024       LAP170SR2           0000000000000100500BUNZL               

00864030I024       LAP170SR2BP         0000000000000075000BUNZL               

00865030I024       LAP90B1             0000000000000010500BUNZL               

00866030I024       LAP90SR1            0000000000000049500BUNZL               

00867030I024       LAP90SR1BP          0000000000000070000BUNZL               

00868030I024       LAP90SR2            0000000000000044500BUNZL               

00869030I024       LBS90A4TW           0000000000000057500BUNZL               

00870030I024       LDG115SR3           0000000000000039500BUNZL               

00871030I024       LDG130SR3           0000000000000023000BUNZL               

00872030I024       LDG150SR3           0000000000000005000BUNZL               

00873030I024       LDG170SR3           0000000000000000000BUNZL               

00874030I024       LDG200SR3           0000000000000004000BUNZL               

00875030I024       LDG250SR3           0000000000000007500BUNZL               

00876030I024       LDG300SR3           0000000000000012250BUNZL               

00877030I024       LDG350SR3           0000000000000005250BUNZL               

00878030I024       LDS115SR3           0000000000000036000BUNZL               

00879030I024       LDS130SR3           0000000000000015000BUNZL               

00880030I024       LDS150SR3           0000000000000022000BUNZL               

00881030I024       LDS170SR3           0000000000000017500BUNZL               

00882030I024       LDS200SR3           0000000000000019750BUNZL               

00883030I024       LDS250SR3           0000000000000004750BUNZL               

00884030I024       LDS300SR3           0000000000000003250BUNZL               

00885030I024       LDS350SR3           0000000000000005250BUNZL               

00886030I024       LSB2006692          0000000000000002125BUNZL               

00887030I024       LSB200B1            0000000000000003125BUNZL               

00888030I024       LSB200B1BP          0000000000000030000BUNZL               

00889030I024       LSB200B2            0000000000000023500BUNZL               

00890030I024       LSB200SR1           0000000000000016375BUNZL               

00891030I024       LSB200SR1BP         0000000000000024000BUNZL               

00892030I024       LSB200SR2           0000000000000042000BUNZL               

00893030I024       LSB200SR2BP         0000000000000048000BUNZL               

00894030I024       LSB250B1            0000000000000002125BUNZL               

00895030I024       LSB250B1BP          0000000000000008000BUNZL               

00896030I024       LSB250B2            0000000000000047500BUNZL               

00897030I024       LSB250SR1           0000000000000000000BUNZL               

00898030I024       LSB250SR1BP         0000000000000076500BUNZL               

00899030I024       LSB250SR2           0000000000000148250BUNZL               

00900030I024       LSB300B1            0000000000000009125BUNZL               

00901030I024       LSB300B2            0000000000000036375BUNZL               

00902030I024       LSB300SR1           0000000000000003625BUNZL               

00903030I024       LSB300SR1BP         0000000000000008000BUNZL               

00904030I024       LSB300SR2           0000000000000010625BUNZL               

00905030I024       LSB300SR2BP         0000000000000032000BUNZL               

00906030I024       LSB350B2            0000000000000016375BUNZL               

00907030I024       LSB350B2BP          0000000000000005500BUNZL               

00908030I024       LSB350SR1           0000000000000027125BUNZL               

00909030I024       LSB350SR1BP         0000000000000024500BUNZL               

00910030I024       LSB350SR2           0000000000000048250BUNZL               

00911030I024       LSB350SR2BP         0000000000000014000BUNZL               

00912030I024       LSP100B1            0000000000000008000BUNZL               

00913030I024       LSP100B2            0000000000000021000BUNZL               

00914030I024       LSP100SR1           0000000000000017750BUNZL               

00915030I024       LSP100SR1BP         0000000000000104000BUNZL               

00916030I024       LSP100SR2           0000000000000145500BUNZL               

00917030I024       LSP100SR2BP         0000000000000078000BUNZL               

00918030I024       LSP115B1            0000000000000027000BUNZL               

00919030I024       LSP115B1BP          0000000000000018000BUNZL               

00920030I024       LSP115B2            0000000000000054000BUNZL               

00921030I024       LSP115RA1           0000000000000011000BUNZL               

00922030I024       LSP115RA1BP         0000000000000033000BUNZL               

00923030I024       LSP115SR1           0000000000000021250BUNZL               

00924030I024       LSP115SR1BP         0000000000000088000BUNZL               

00925030I024       LSP115SR2           0000000000000070500BUNZL               

00926030I024       LSP115SR2BP         0000000000000115000BUNZL               

00927030I024       LSP130B1            0000000000000021500BUNZL               

00928030I024       LSP130B1BP          0000000000000040000BUNZL               

00929030I024       LSP130B2            0000000000000029000BUNZL               

00930030I024       LSP130B2BP          0000000000000045000BUNZL               

00931030I024       LSP130RA1           0000000000000038000BUNZL               

00932030I024       LSP130RA1BP         0000000000000060000BUNZL               

00933030I024       LSP130SR1           0000000000000063000BUNZL               

00934030I024       LSP130SR1BP         0000000000000080000BUNZL               

00935030I024       LSP130SR2           0000000000000216000BUNZL               

00936030I024       LSP130SR2BP         0000000000000200000BUNZL               

00937030I024       LSP1506692          0000000000000001000BUNZL               

00938030I024       LSP150B1            0000000000000004500BUNZL               

00939030I024       LSP150B1BP          0000000000000035000BUNZL               

00940030I024       LSP150B2            0000000000000046500BUNZL               

00941030I024       LSP150B2BP          0000000000000052000BUNZL               

00942030I024       LSP150RA1           0000000000000020000BUNZL               

00943030I024       LSP150RA1BP         0000000000000072000BUNZL               

00944030I024       LSP150SR1           0000000000000026500BUNZL               

00945030I024       LSP150SR1BP         0000000000000056000BUNZL               

00946030I024       LSP150SR2           0000000000000216000BUNZL               

00947030I024       LSP150SR2BP         0000000000000255000BUNZL               

00948030I024       LSP170B1            0000000000000003000BUNZL               

00949030I024       LSP170B2            0000000000000058250BUNZL               

00950030I024       LSP170SR1           0000000000000024250BUNZL               

00951030I024       LSP170SR1BP         0000000000000075000BUNZL               

00952030I024       LSP170SR2           0000000000000180000BUNZL               

00953030I024       LSP170SR2BP         0000000000000165000BUNZL               

00954030I024       LSP90B1             0000000000000007250BUNZL               

00955030I024       LSP90SR1            0000000000000013500BUNZL               

00956030I024       LSP90SR1BP          0000000000000065000BUNZL               

00957030I024       LSP90SR2            0000000000000072500BUNZL               

00958030I024       LSP90SR2BP          0000000000000023000BUNZL               

00959030I024       LTS260SR2           0000000000000000800BUNZL               

00960030I024       LUM250SR2SI         0000000000000000300BUNZL               

00961030I024       LUT250SR2BK         0000000000000000500BUNZL               

00962030I024       LUT250SR2BU         0000000000000000500BUNZL               

00963030I024       LUT250SR2CR         0000000000000000700BUNZL               

00964030I024       LUT250SR2LB         0000000000000000200BUNZL               

00965030I024       LUT250SR2LG         0000000000000000300BUNZL               

00966030I024       LUT250SR2LY         0000000000000000200BUNZL               

00967030I024       LUT250SR2YE         0000000000000000300BUNZL               

00968030I024       LUW250SR2           0000000000000002400BUNZL               

00969030I024       LUW300SR2           0000000000000000400BUNZL               

00970030I024       LUW350SR2           0000000000000000300BUNZL               

00971030I024       MAB200B1            0000000000000015125BUNZL               

00972030I024       MAB200B1BP          0000000000000020000BUNZL               

00973030I024       MAB200B2            0000000000000028250BUNZL               

00974030I024       MAB200B2BP          0000000000000020000BUNZL               

00975030I024       MAB200MO            0000000000000013500BUNZL               

00976030I024       MAB200MOBP          0000000000000033000BUNZL               

00977030I024       MAB200SPA           0000000000000021500BUNZL               

00978030I024       MAB200SR1           0000000000000020500BUNZL               

00979030I024       MAB200SR1BP         0000000000000022000BUNZL               

00980030I024       MAB200SR2           0000000000000056500BUNZL               

00981030I024       MAB200SR2BP         0000000000000033000BUNZL               

00982030I024       MAB230B2            0000000000000000000BUNZL               

00983030I024       MAB230SR1           0000000000000007375BUNZL               

00984030I024       MAB230SR1BP         0000000000000009000BUNZL               

00985030I024       MAB230SR2           0000000000000025500BUNZL               

00986030I024       MAB250B1            0000000000000006125BUNZL               

00987030I024       MAB250B1BP          0000000000000008000BUNZL               

00988030I024       MAB250B2            0000000000000000750BUNZL               

00989030I024       MAB250B2BP          0000000000000048000BUNZL               

00990030I024       MAB250MO            0000000000000017250BUNZL               

00991030I024       MAB250SPA           0000000000000010500BUNZL               

00992030I024       MAB250SR1           0000000000000006000BUNZL               

00993030I024       MAB250SR1BP         0000000000000012000BUNZL               

00994030I024       MAB250SR2           0000000000000020750BUNZL               

00995030I024       MAB250SR2BP         0000000000000025500BUNZL               

00996030I024       MAB250SR3           0000000000000003500BUNZL               

00997030I024       MAB250TPA           0000000000000009500BUNZL               

00998030I024       MAB280B1            0000000000000005000BUNZL               

00999030I024       MAB280B2            0000000000000000875BUNZL               

01000030I024       MAB280SR1           0000000000000000000BUNZL               

01001030I024       MAB280SR2           0000000000000005000BUNZL               

01002030I024       MAB3006692          0000000000000000250BUNZL               

01003030I024       MAB300B1            0000000000000009000BUNZL               

01004030I024       MAB300B1BP          0000000000000006500BUNZL               

01005030I024       MAB300B2            0000000000000012625BUNZL               

01006030I024       MAB300B2BP          0000000000000013000BUNZL               

01007030I024       MAB300MO            0000000000000000250BUNZL               

01008030I024       MAB300SPA           0000000000000019000BUNZL               

01009030I024       MAB300SR1           0000000000000006500BUNZL               

01010030I024       MAB300SR2           0000000000000000000BUNZL               

01011030I024       MAB300SR2BP         0000000000000028000BUNZL               

01012030I024       MAB350B1            0000000000000000000BUNZL               

01013030I024       MAB350B1BP          0000000000000000000BUNZL               

01014030I024       MAB350B2            0000000000000002750BUNZL               

01015030I024       MAB350B2BP          0000000000000016500BUNZL               

01016030I024       MAB350MO            0000000000000000000BUNZL               

01017030I024       MAB350SR1           0000000000000007000BUNZL               

01018030I024       MAB350SR1BP         0000000000000013750BUNZL               

01019030I024       MAB350SR2           0000000000000015250BUNZL               

01020030I024       MAB350SR2BP         0000000000000033000BUNZL               

01021030I024       MAB400B1            0000000000000000000BUNZL               

01022030I024       MAB400B2            0000000000000006500BUNZL               

01023030I024       MAB400SR1           0000000000000000000BUNZL               

01024030I024       MAB400SR2           0000000000000026000BUNZL               

01025030I024       MAP100B1            0000000000000018750BUNZL               

01026030I024       MAP100B1BP          0000000000000044000BUNZL               

01027030I024       MAP100B2            0000000000000030000BUNZL               

01028030I024       MAP100RA1           0000000000000011250BUNZL               

01029030I024       MAP100RA1BP         0000000000000023000BUNZL               

01030030I024       MAP100SR1           0000000000000013000BUNZL               

01031030I024       MAP100SR2           0000000000000058500BUNZL               

01032030I024       MAP100SR2BP         0000000000000092000BUNZL               

01033030I024       MAP100SR3           0000000000000060000BUNZL               

01034030I024       MAP1156692BP        0000000000000020000BUNZL               

01035030I024       MAP115B1            0000000000000035000BUNZL               

01036030I024       MAP115B1BP          0000000000000051000BUNZL               

01037030I024       MAP115B2            0000000000000040000BUNZL               

01038030I024       MAP115B2BP          0000000000000068000BUNZL               

01039030I024       MAP115MO            0000000000000017000BUNZL               

01040030I024       MAP115MOBP          0000000000000060000BUNZL               

01041030I024       MAP115RA1           0000000000000028250BUNZL               

01042030I024       MAP115RA1BP         0000000000000080000BUNZL               

01043030I024       MAP115SPA           0000000000000000000BUNZL               

01044030I024       MAP115SR1           0000000000000017250BUNZL               

01045030I024       MAP115SR1BP         0000000000000080000BUNZL               

01046030I024       MAP115SR2           0000000000000058000BUNZL               

01047030I024       MAP115SR2BP         0000000000000140000BUNZL               

01048030I024       MAP115SR3           0000000000000038500BUNZL               

01049030I024       MAP1306692          0000000000000011750BUNZL               

01050030I024       MAP1306692BP        0000000000000045000BUNZL               

01051030I024       MAP130B1            0000000000000005000BUNZL               

01052030I024       MAP130B1BP          0000000000000007500BUNZL               

01053030I024       MAP130B2            0000000000000015500BUNZL               

01054030I024       MAP130B2BP          0000000000000000000BUNZL               

01055030I024       MAP130MO            0000000000000035500BUNZL               

01056030I024       MAP130MOBP          0000000000000102000BUNZL               

01057030I024       MAP130RA1           0000000000000020750BUNZL               

01058030I024       MAP130RA1BP         0000000000000036000BUNZL               

01059030I024       MAP130SPA           0000000000000000000BUNZL               

01060030I024       MAP130SR1           0000000000000012750BUNZL               

01061030I024       MAP130SR1BP         0000000000000135000BUNZL               

01062030I024       MAP130SR2           0000000000000073000BUNZL               

01063030I024       MAP130SR2BP         0000000000000108000BUNZL               

01064030I024       MAP130SR3           0000000000000002000BUNZL               

01065030I024       MAP1506692          0000000000000005750BUNZL               

01066030I024       MAP150B1            0000000000000021000BUNZL               

01067030I024       MAP150B1BP          0000000000000045500BUNZL               

01068030I024       MAP150B2            0000000000000005500BUNZL               

01069030I024       MAP150B2BP          0000000000000039000BUNZL               

01070030I024       MAP150MO            0000000000000028000BUNZL               

01071030I024       MAP150MOBP          0000000000000075000BUNZL               

01072030I024       MAP150RA1           0000000000000009750BUNZL               

01073030I024       MAP150RA1BP         0000000000000040000BUNZL               

01074030I024       MAP150SPA           0000000000000000000BUNZL               

01075030I024       MAP150SR1           0000000000000028500BUNZL               

01076030I024       MAP150SR1BP         0000000000000064000BUNZL               

01077030I024       MAP150SR2           0000000000000095000BUNZL               

01078030I024       MAP150SR2BP         0000000000000255000BUNZL               

01079030I024       MAP150SR3           0000000000000006500BUNZL               

01080030I024       MAP1706692          0000000000000022000BUNZL               

01081030I024       MAP1706692BP        0000000000000026000BUNZL               

01082030I024       MAP170B1            0000000000000009375BUNZL               

01083030I024       MAP170B1BP          0000000000000030000BUNZL               

01084030I024       MAP170B2            0000000000000000000BUNZL               

01085030I024       MAP170B2BP          0000000000000023000BUNZL               

01086030I024       MAP170MO            0000000000000013250BUNZL               

01087030I024       MAP170MOBP          0000000000000065000BUNZL               

01088030I024       MAP170RA1           0000000000000009500BUNZL               

01089030I024       MAP170SPA           0000000000000043000BUNZL               

01090030I024       MAP170SR1           0000000000000031750BUNZL               

01091030I024       MAP170SR1BP         0000000000000032500BUNZL               

01092030I024       MAP170SR2           0000000000000042500BUNZL               

01093030I024       MAP170SR3           0000000000000033000BUNZL               

01094030I024       MAP170TPA           0000000000000024250BUNZL               

01095030I024       MAP90B1             0000000000000009250BUNZL               

01096030I024       MAP90B2             0000000000000040000BUNZL               

01097030I024       MAP90RA1            0000000000000012500BUNZL               

01098030I024       MAP90RA1BP          0000000000000039000BUNZL               

01099030I024       MAP90SR1            0000000000000029500BUNZL               

01100030I024       MAP90SR1BP          0000000000000065000BUNZL               

01101030I024       MAP90SR2            0000000000000037000BUNZL               

01102030I024       MBW100A4            0000000000000023500BUNZL               

01103030I024       MBW100SR2           0000000000000015000BUNZL               

01104030I024       MBW120SR2           0000000000000006000BUNZL               

01105030I024       MBW135SR2           0000000000000000000BUNZL               

01106030I024       MBW160SR2           0000000000000001750BUNZL               

01107030I024       MBW200SR2           0000000000000000800BUNZL               

01108030I024       MBW250SR2           0000000000000000600BUNZL               

01109030I024       MBW280SR2           0000000000000001000BUNZL               

01110030I024       MBW330SR2           0000000000000002000BUNZL               

01111030I024       MBW400SR2           0000000000000001600BUNZL               

01112030I024       MGB250SR2           0000000000000002500BUNZL               

01113030I024       MGP130SR2           0000000000000007000BUNZL               

01114030I024       MGP150SR2           0000000000000021500BUNZL               

01115030I024       MIC85SR2            0000000000000007500BUNZL               

01116030I024       MMB200SR2           0000000000000000750BUNZL               

01117030I024       MMB250B2            0000000000000005625BUNZL               

01118030I024       MMB250SR1           0000000000000004900BUNZL               

01119030I024       MMB250SR2           0000000000000005250BUNZL               

01120030I024       MMB300B2            0000000000000009000BUNZL               

01121030I024       MMB300SR1           0000000000000001800BUNZL               

01122030I024       MMB300SR2           0000000000000012250BUNZL               

01123030I024       MMB350B2            0000000000000002125BUNZL               

01124030I024       MMB350SR2           0000000000000000125BUNZL               

01125030I024       MMP100SR1BP         0000000000000024000BUNZL               

01126030I024       MMP115SR2           0000000000000003500BUNZL               

01127030I024       MMP130SR2           0000000000000017000BUNZL               

01128030I024       MMP150B2            0000000000000003750BUNZL               

01129030I024       MMP150SR1           0000000000000002750BUNZL               

01130030I024       MMP150SR2           0000000000000025000BUNZL               

01131030I024       MMP170SR1           0000000000000000250BUNZL               

01132030I024       MMP170SR2           0000000000000013000BUNZL               

01133030I024       MPEC4WHPS           0000000000000007250BUNZL               

01134030I024       MPEC4WHPSWI         0000000000000005000BUNZL               

01135030I024       MPEDLWHPSWI         0000000000000011000BUNZL               

01136030I024       MPU170SR1UW         0000000000000001000BUNZL               

01137030I024       MSS105A4            0000000000000003500BUNZL               

01138030I024       MSS105SR2           0000000000000003000BUNZL               

01139030I024       MSS115SR2           0000000000000003000BUNZL               

01140030I024       MSS135SR2           0000000000000002000BUNZL               

01141030I024       MSS185SR2           0000000000000003000BUNZL               

01142030I024       MSS290SR2           0000000000000000600BUNZL               

01143030I024       MSS340SR2           0000000000000000200BUNZL               

01144030I024       MSS385SR2           0000000000000000400BUNZL               

01145030I024       MSS95A4             0000000000000001000BUNZL               

01146030I024       MSU105A3            0000000000000001000BUNZL               

01147030I024       MSU105A4            0000000000000059000BUNZL               

01148030I024       MSU105SR2           0000000000000017000BUNZL               

01149030I024       MSU115SR2           0000000000000011000BUNZL               

01150030I024       MSU135SR2           0000000000000019500BUNZL               

01151030I024       MSU155SR2           0000000000000003000BUNZL               

01152030I024       MSU185SR2           0000000000000002200BUNZL               

01153030I024       MSU215SR2           0000000000000001200BUNZL               

01154030I024       MSU250SR2           0000000000000000600BUNZL               

01155030I024       MSU290SR2           0000000000000001200BUNZL               

01156030I024       MSU340SR2           0000000000000001500BUNZL               

01157030I024       MSU385SR2           0000000000000000800BUNZL               

01158030I024       MSU95A4             0000000000000005000BUNZL               

01159030I024       MSU95SR2            0000000000000002000BUNZL               

01160030I024       MWC105A4SC          0000000000000012500BUNZL               

01161030I024       MWC135SR2SC         0000000000000002500BUNZL               

01162030I024       NCC100A3            0000000000000159000BUNZL               

01163030I024       NCC100A3P           0000000000000000000BUNZL               

01164030I024       NCC100A4            0000000000000225000BUNZL               

01165030I024       NCC100SR2           0000000000000051000BUNZL               

01166030I024       NCC100SR3           0000000000000055500BUNZL               

01167030I024       NCC120A3            0000000000000012000BUNZL               

01168030I024       NCC120A3P           0000000000000016000BUNZL               

01169030I024       NCC120A4            0000000000000149500BUNZL               

01170030I024       NCC120SR3           0000000000000003000BUNZL               

01171030I024       NCC160A3            0000000000000045000BUNZL               

01172030I024       NCC160A3P           0000000000000017500BUNZL               

01173030I024       NCC160A4            0000000000000025500BUNZL               

01174030I024       NCC160SR3           0000000000000022500BUNZL               

01175030I024       NCC200A3            0000000000000035000BUNZL               

01176030I024       NCC200A3P           0000000000000024000BUNZL               

01177030I024       NCC200A4            0000000000000038750BUNZL               

01178030I024       NCC250A3            0000000000000002750BUNZL               

01179030I024       NCC250A3P           0000000000000022000BUNZL               

01180030I024       NCC250A4            0000000000000009500BUNZL               

01181030I024       NCC250SR3           0000000000000004375BUNZL               

01182030I024       NCC300A3            0000000000000000000BUNZL               

01183030I024       NCC300A4            0000000000000020500BUNZL               

01184030I024       NCC300SR3           0000000000000017500BUNZL               

01185030I024       NCC90A3             0000000000000060000BUNZL               

01186030I024       NCC90A4             0000000000000170000BUNZL               

01187030I024       NPC805915           0000000000000000019BUNZL               

01188030I024       NPC808415           0000000000000000017BUNZL               

01189030I024       NPC808417           0000000000000000018BUNZL               

01190030I024       NPC80A0             0000000000000000023BUNZL               

01191030I024       NPC80A1             0000000000000000011BUNZL               

01192030I024       NPC80A2             0000000000000000029BUNZL               

01193030I024       OHP001              0000000000000000062BUNZL               

01194030I024       OHP002              0000000000000000017BUNZL               

01195030I024       OHP003              0000000000000000027BUNZL               

01196030I024       OHP005              0000000000000000005BUNZL               

01197030I024       OHP006              0000000000000000023BUNZL               

01198030I024       OHP007              0000000000000000017BUNZL               

01199030I024       OLC80A4             0000000000000390000BUNZL               

01200030I024       PAN80A4             0000000000000010000BUNZL               

01201030I024       PAN80SR2            0000000000000029000BUNZL               

01202030I024       POW80A4             0000000000000062500BUNZL               

01203030I024       QCB300SR2SW         0000000000000005100BUNZL               

01204030I024       QCP110SR2SW         0000000000000006000BUNZL               

01205030I024       QCT100A4VE          0000000000000007500BUNZL               

01206030I024       QCT100SR2BW         0000000000000005500BUNZL               

01207030I024       QCT100SR2CR         0000000000000006500BUNZL               

01208030I024       QCT100SR2DW         0000000000000004000BUNZL               

01209030I024       QCT100SR2HW         0000000000000007000BUNZL               

01210030I024       QCT100SR2OY         0000000000000007000BUNZL               

01211030I024       QCT100SR2VE         0000000000000002500BUNZL               

01212030I024       QCT300SR2BW         0000000000000000100BUNZL               

01213030I024       QCT300SR2CR         0000000000000001100BUNZL               

01214030I024       QCT300SR2DW         0000000000000000300BUNZL               

01215030I024       QCT300SR2HW         0000000000000000300BUNZL               

01216030I024       QCT300SR2OY         0000000000000000500BUNZL               

01217030I024       QCT300SR2VE         0000000000000000700BUNZL               

01218030I024       QCX100A4DW          0000000000000015000BUNZL               

01219030I024       QCX100SR2BW         0000000000000016500BUNZL               

