21/09/2006IPSWICH         T0010           00180025ONO7214BPXB     1278308-14375600119             0014200221200040
21/09/2006IPSWICH         T0010           00180025NSA5326BP       1278308-14375600119             0019500071900010
21/09/2006IPSWICH         T0010           00180025NSA5326         1278308-14375600119             0011500011400000
21/09/2006IPSWICH         T0009           00200025ART3020CR       1279642-14482600156             0010250000800000
21/09/2006NORWICH         T0045           00050016ARS0320         1279650-14483600180             0011000006500000
21/09/2006NORWICH         T0045           00050015NSA3050         1279652-14483700180             0010400003000000
21/09/2006NORWICH         T0045           000300091R33            1279679-14491400186             0013000004400000
21/09/2006NORWICH         T0046           00060005IQSS3024        1279712-14486700169             0010250000900000
21/09/2006NORWICH         T0045           00160030IPP0315         1279823-14499700163             0012500001200000
21/09/2006NORWICH         T0045           00160030RIO0315XR       1279823-14499700163             0012500001200000
21/09/2006NORWICH         T0045           00160030RIE0316XR       1279823-14499700163             0012500001300000
21/09/2006NORWICH         T0047           00070011ICP0316         1279908-14500300176             0011500007900000
21/09/2006NORWICH         T0045           00030010RN5854          1279922-14502100186             0011000016300000
21/09/2006IPSWICH         T0004           00040006PRS3030         1279964-14504700144             0011500006800000
21/09/2006NORWICH         T0042           00110014NSA4318BPFLEXI  1279982-14506000152             0018000283100020
21/09/2006NORWICH         T0045           00050014NSS3034BPFLEXI  1280005-14515000180             0011500077200010
21/09/2006NORWICH         T0041           00150018DAN0316XD       1280020-14509700101             0012500013100000
21/09/2006NORWICH         T0047           00070010THB5826         1280039-14510500176             0012250017700000
21/09/2006NORWICH         T0047           00070010THS5823         1280039-14510500176             0017500052100010
21/09/2006NORWICH         T0045           00050017RD50024044      1280070-14515600180             0010004018500000
21/09/2006NORWICH         T0047           00110018HD2732          1280080-14513900178             0011000002400000
21/09/2006NORWICH         T0041           00030003GIH30           1280159-14519300149             0015000012100000
21/09/2006NORWICH         T0041           00030003GIM30           1280159-14519300149             0015000013000000
21/09/2006NORWICH         T0041           00030003GIB30           1280159-14519300149             0015000012100000
21/09/2006NORWICH         T0041           00030003GIM30PK         1280159-14519300149             0012500006500000
21/09/2006NORWICH         T0041           00030003GIB30YL         1280159-14519300149             0012500006000000
21/09/2006IPSWICH         T0003           00030002IQE0316         1280188-14530500147             0012500001300000
21/09/2006NORWICH         T0045           00120025RN3070          1280198-14523900184             0010125001300000
21/09/2006IPSWICH         T0003           00040004GGL3023BP       1280216-14538700146             0012200076500010
21/09/2006IPSWICH         T0003           00040004RL5830          1280216-14538700146             0011500013600000
21/09/2006NORWICH         T0046           00090011ME6240          1280246-14527800168             0010200002900000
21/09/2006NORWICH         T0046           00090011ME6240PC        1280246-14527800168             0010200002900000
21/09/2006NORWICH         T0046           00040003IQSS0920        1280266-14528600170             0018000010500000
21/09/2006NORWICH         T0046           00040003IQSS0320        1280266-14528600170             0011000006500000
21/09/2006IPSWICH         T0004           00040007PRG3030         1280293-14531100144             0010250001100000
21/09/2006IPSWICH         T0009           00060008DAN0316XD       1280303-14532300135             0012500013100000
21/09/2006NORWICH         T0047           00130021GIB30BL         1280308-14532500182             0010500001200000
21/09/2006IPSWICH         T0003           00030003DCL0315XD       1280315-14533400147             0015000246800040
21/09/2006NORWICH         T0046           001200151A04            1280320-14533800164             0012000001200000
21/09/2006NORWICH         T0046           00120015ZDS2770         1280320-14533800164             0010500002600000
21/09/2006NORWICH         T0046           00190023PM3056          1280334-14534800172             0010600003800000
21/09/2006IPSWICH         T0002           00150023GIH30           1280348-14539600145             0012000004800000
21/09/2006IPSWICH         T0002           00150023GIB30BL         1280348-14539600145             0012000004800000
21/09/2006IPSWICH         T0002           00150022GIH30           1280355-14539800145             0014000009700000
21/09/2006IPSWICH         T0002           00150022GIB30           1280355-14539800145             0014000009700000
21/09/2006IPSWICH         T0009           00140019RN6623          1280363-14539900134             0010750006700000
21/09/2006NORWICH         T0041           00120015HD3020          1280393-14541600150             0010500001500000
21/09/2006NORWICH         T0044           00090012DUOX00069       5805334-1       161             0016250105000010
21/09/2006NORWICH         T0044           00110015FFMX00978       5864936-1       188             0011200081300010
21/09/2006IPSWICH         T0010           00150019JET531015CM     5866759-1       130             0010001002100000
21/09/2006NORWICH         T0047           00100016AJB316013FL     5867440-1       179             0010001003200000
21/09/2006IPSWICH         T0005           00180028UEC6509ORLM     5874422-1       113             0010010000200000
21/09/2006IPSWICH         T0010           00130017HEP1132         5877326-1       126             0011000039300000
21/09/2006IPSWICH         T0001           00100018VEG007CL        5877734-1       110             0010420013000000
21/09/2006NORWICH         T0045           00030008PSI5417BP       5877771-1       186             0014000019400000
21/09/2006IPSWICH         T0009           00170022FLX030BK        5878344-1       155             0010050000500000
21/09/2006IPSWICH         T0005           00020004PCLX05178       5878506-1       196             0010002000400000
21/09/2006NORWICH         T0047           00080012HGP5432         5878723-1       177             0012000015700000
21/09/2006IPSWICH         T0001           00090017SSE9817BP       5878747-1       109             0010100003000000
21/09/2006IPSWICH         T0007           00110021NEM0317TT       5878758-1       104             0012000525000070
21/09/2006IPSWICH         T0008           00130017FLX351205WH     5878875-1       107             0010002001400000
21/09/2006IPSWICH         T0011           00020002RVU1130F        5878933-1       114             0013000010900000
21/09/2006IPSWICH         T0010           00070006DQF153019SU     5879018-1       118             0010006006600000
21/09/2006NORWICH         T0046           00080007LXD201260CL     5879111-1       166             0010006001900000
21/09/2006IPSWICH         T0009           00190024CCW1250         5879155-1       157             0010005015100000
21/09/2006IPSWICH         T0001           00070015DIP4165IDG      5879199-1       191             0010001000000000
21/09/2006IPSWICH         T0001           00020003HEB6155BP       5879282-1       108             0012000386400040
21/09/2006IPSWICH         T0008           00250035QMX251230CL     5879284-1       148             0010001001100000
21/09/2006NORWICH         T0046           00100012USF1763PF       5879286-1       167             0010002000100000
21/09/2006IPSWICH         T0008           00250036LXN241240CL     5879300-1       148             0010002003000000
21/09/2006IPSWICH         T0008           00120016HEB2755         5879334-1       106             0011000008700000
21/09/2006IPSWICH         T0008           00120016HEP4843BP       5879334-1       106             0012200012200000
21/09/2006NORWICH         T0046           00080008VFS5900SUP      5879336-1       166             0010200004500000
21/09/2006NORWICH         T0046           00080008SQGCLEANER      5879336-1       166             0010001000100000
21/09/2006NORWICH         T0043           00090009UEC1525TYLM     5879342-1       174             0010045001500000
21/09/2006NORWICH         T0046           00080010PCFX00032       5879359-1       166             0010012012600000
21/09/2006IPSWICH         T0010           00140018HGP2832BP       5879408-1       129             0019600490900040
21/09/2006IPSWICH         T0004           00110014CHC             5879518-1       122             0010006000000000
21/09/2006IPSWICH         T0004           00160021SWL1159NM       5879548-1       121             0012800031800000
21/09/2006NORWICH         T0047           00180027FXC050WF        5879641-1       173             0010014008700000
21/09/2006IPSWICH         T0007           00050008FLX241203WH     5879668-1       115             0010010006500000
21/09/2006IPSWICH         T0006           00150022CCG1043         5879763-1       193             0010005002800000
21/09/2006IPSWICH         T0006           00150022CCG0355         5879763-1       193             0010004006600000
21/09/2006IPSWICH         T0006           00150022CCG1055         5879763-1       193             0010001002500000
21/09/2006NORWICH         T0047           00030003DFL8810X        5879830-1       158             0010001002100000
21/09/2006NORWICH         T0041           00190022CRX489661WR     5879887-1       142             0010005002300000
21/09/2006IPSWICH         T0008           00160023EXT251220CL     5879900-1       117             0010010007800000
21/09/2006NORWICH         T0044           00060005HEP1128BPFP     5879935-1       187             0014400152900010
21/09/2006IPSWICH         T0008           00160021QMX251230CL     5879959-1       117             0010010011100000
21/09/2006IPSWICH         T0008           00160022EXT251240CL     5879961-1       117             0010010015500000
21/09/2006IPSWICH         T0008           00160024EXT251260CL     5879964-1       117             0010003007000000
21/09/2006IPSWICH         T0004           00070010HBC1128NQ       5879986-1       127             0011050036500000
21/09/2006NORWICH         T0046           00080009VKT701022       5880017-1       166             0010100002400000
21/09/2006IPSWICH         T0011           00130018SWL2950CWNM     5880056-1       132             0010200002500000
21/09/2006IPSWICH         T0011           00130018SWL2959CWNM     5880056-1       132             0010200002900000
21/09/2006IPSWICH         T0011           00130018KAD1182OW       5880056-1       132             0010125000900000
21/09/2006IPSWICH         T0011           00130018SDM6156RQ       5880056-1       132             0010100002200000
21/09/2006IPSWICH         T0008           00180027PSF440510SX     5880091-1       138             0010001002700000
21/09/2006IPSWICH         T0008           00180026MST1330         5880186-1       138             0010001000200000
21/09/2006IPSWICH         T0005           00180027FLX241201WH     5880215-1       113             0010001000200000
21/09/2006NORWICH         T0045           00040013DEC251230WH     5880228-1       181             0010004004600000
21/09/2006NORWICH         T0045           00040011CRX486147WR     5880235-1       181             0010010001400000
21/09/2006NORWICH         T0045           00040011CRX364847WR     5880235-1       181             0010010000800000
21/09/2006IPSWICH         T0001           00060011EBU0324         5880311-1       190             0010036011700000
21/09/2006IPSWICH         T0007           00060009COS             5880319-1       116             0010006000000000
21/09/2006IPSWICH         T0007           00060009COS             5880319-1       116             0010006000000000
21/09/2006IPSWICH         T0007           00060009HEP             5880319-1       116             0010006000000000
21/09/2006IPSWICH         T0007           00060009HEB             5880319-1       116             0010006000000000
21/09/2006IPSWICH         T0001           00020001HFP1128         5880349-1       108             0016000020900000
21/09/2006IPSWICH         T0001           00060012MUY0321NS       5880365-1       190             0010010002900000
21/09/2006IPSWICH         T0010           00120014REX355361YE     5880433-1       124             0010012046400010
21/09/2006IPSWICH         T0010           00120016REX355273BB     5880436-1       124             0010005019300000
21/09/2006IPSWICH         T0010           00120013REX310404SG     5880448-1       124             0010002015500000
21/09/2006NORWICH         T0044           00120016EVO0317         5880466-1       143             0010012015800000
21/09/2006NORWICH         T0044           00120016EVO1017         5880466-1       143             0010001002600000
21/09/2006NORWICH         T0042           00080010RMT8200OPL      5880483-1       153             0010250001800000
21/09/2006IPSWICH         T0004           00120016RXK352303CL     5880537-1       123             0010004002300000
21/09/2006IPSWICH         T0004           00120015FXC302003WF     5880541-1       123             0010004001400000
21/09/2006NORWICH         T0043           00100010CHC1165CWNQ     5880557-1       175             0012700030300000
21/09/2006IPSWICH         T0010           00120015REX355284BL     5880640-1       124             0010003011600000
21/09/2006NORWICH         T0045           00040012DIB251203BF     5880666-1       181             0010002002500000
21/09/2006IPSWICH         T0001           00020002HFP1137         5880773-1       108             0011150052200000
21/09/2006IPSWICH         T0007           00100019ECT             5880776-1       105             0010003000000000
21/09/2006IPSWICH         T0002           00120016MOB0317         5880876-1       133             0010150039400010
21/09/2006IPSWICH         T0002           00120016KAF0317CY       5880876-1       133             0010005001300000
21/09/2006IPSWICH         T0002           00120016MOT0317RD       5880876-1       133             0010001001300000
21/09/2006IPSWICH         T0001           00050010KAS1130WG       5880948-1       189             0010500001800000
21/09/2006NORWICH         T0046           00160019KAS1130PK       5881058-1       171             0011000003600000
21/09/2006IPSWICH         T0001           00060013HEP1743         5881109-1       190             0015000012900000
21/09/2006NORWICH         T0045           00140027ESK101512NQ     5881113-1       185             0010020003100000
21/09/2006NORWICH         T0047           00030002OPL             5881136-1       158             0010001000000000
21/09/2006NORWICH         T0047           00030002HFD             5881136-1       158             0010001000000000
21/09/2006IPSWICH         T0001           00060014MOT0317PK       5881163-1       190             0010008010500000
21/09/2006IPSWICH         T0001           00060014NAV0324NS       5881163-1       190             0010004006500000
21/09/2006NORWICH         T0041           00090011GBS1155NQ       5881266-1       151             0010500003800000
21/09/2006NORWICH         T0041           00090011GBS1163NQ       5881266-1       151             0010500005300000
21/09/2006NORWICH         T0045           00060018KAE1124CY       5881336-1       159             0010500001500000
21/09/2006IPSWICH         T0008           00110015EVO0317         5881400-1       111             0010014018400000
21/09/2006IPSWICH         T0006           00160023FCFCHRA1YY      5881430-1       194             0010006002800000
21/09/2006IPSWICH         T0004           00060009DIB251202BF     5881446-1       128             0010003002900000
21/09/2006IPSWICH         T0007           00060010IDA1760PK       5881471-1       116             0011000000900000
21/09/2006IPSWICH         T0007           00060010IDC1770YE       5881471-1       116             0010500000500000
21/09/2006NORWICH         T0042           00040004KAD1178YE       5881491-1       140             0015750031400000
21/09/2006NORWICH         T0042           00040006MOT0339MG       5881514-1       140             0011250001300000
21/09/2006NORWICH         T0046           00130016CRX243247WH     5881574-1       165             0010160005800000
21/09/2006NORWICH         T0045           00080020FSE5900CTP      5881662-1       162             0010500009800000
21/09/2006IPSWICH         T0005           00180029USF6784PF       5881728-1       113             0010005000100000
21/09/2006NORWICH         T0047           00120019HFP5424         5881736-1       183             0016000036300000
21/09/2006NORWICH         T0047           00120019HEB1149         5881736-1       183             0011600009700000
21/09/2006NORWICH         T0042           00050007INB6176         5881794-1       139             0011400016200000
21/09/2006IPSWICH         T0007           00110020EVO0317         5881810-1       104             0010010002600000
21/09/2006NORWICH         T0042           00040005INB1187         5881823-1       140             0010200001700000
21/09/2006NORWICH         T0042           00040005MOT0317MG       5881823-1       140             0012500001300000
21/09/2006IPSWICH         T0001           00080016KAD6136BK       5881847-1       131             0010125003400000
21/09/2006NORWICH         T0047           00120020HEP5432         5881954-1       183             0012500019700000
21/09/2006NORWICH         T0044           00060006HGP1737         5881971-1       187             0015500012500000
21/09/2006NORWICH         T0046           00190024SPP1724NW       5881972-1       172             0013800057500010
21/09/2006IPSWICH         T0005           00050009TKS1132BPAQ     5881994-1       195             0013600141400010
21/09/2006IPSWICH         T0005           00050009TKS1132CQ       5881994-1       195             0013750014700000
21/09/2006NORWICH         T0043           00110012RINYELSINV4     5882018-1       160             0010001001000000
21/09/2006NORWICH         T0043           00110011USD1601         5882022-1       160             0010005000200000
21/09/2006NORWICH         T0044           00090011VKK639122BP     5882025-1       161             0013000053900000
21/09/2006NORWICH         T0044           00090011VKK639122       5882025-1       161             0012000035900000
21/09/2006IPSWICH         T0006           00020001DFB9750CW       5882105-1       192             0010050003200000
21/09/2006IPSWICH         T0002           00100014TAU5424BP       5882119-1       136             0017600459600070
21/09/2006IPSWICH         T0010           00090010HGB1155         5882182-1       125             0011200009100000
21/09/2006NORWICH         T0041           00060008HEB1159         5882184-1       154             0011600014400000
21/09/2006NORWICH         T0041           00060008HGP1143         5882184-1       154             0011500007700000
21/09/2006IPSWICH         T0004           00140018IDA1770WH       5882185-1       120             0013500003700000
21/09/2006IPSWICH         T0004           00140018IDB1770YE       5882185-1       120             0012000002100000
21/09/2006IPSWICH         T0004           00140018IDB1770GR       5882185-1       120             0012500002700000
21/09/2006IPSWICH         T0004           00140018IDC1770YE       5882185-1       120             0010500000500000
21/09/2006IPSWICH         T0004           00140018IDC1770PK       5882185-1       120             0011500001600000
21/09/2006IPSWICH         T0005           00020001SOF1130NW       5882222-1       196             0012000007300000
21/09/2006IPSWICH         T0005           00020005HGB2866         5882225-1       196             0011600025200000
21/09/2006IPSWICH         T0008           00090012TLG1124WH       5882235-1       112             0015000015100000
21/09/2006NORWICH         T0047           00030004PLT1127         5882293-1       158             0010250000800000
21/09/2006IPSWICH         T0005           00020003DUM             5882297-1       196             0010001000000000
21/09/2006IPSWICH         T0005           00020002COR1163         5882329-1       196             0011500015900000
21/09/2006IPSWICH         T0008           00210031UPF6801         5882330-1       137             0010025000400000
21/09/2006IPSWICH         T0008           00210030UPF6824         5882335-1       137             0010025000400000
21/09/2006IPSWICH         T0002           00060010PRG6128         5882350-1       134             0013000026600000
21/09/2006IPSWICH         T0011           00020001SOF1130NW       5882362-1       114             0016000021800000
21/09/2006IPSWICH         T0011           00020001SOF6134NW       5882362-1       114             0011750018200000
21/09/2006IPSWICH         T0001           00110019KAF0317CY       5882364-1       102             0010060015800000
21/09/2006IPSWICH         T0001           00110019KAF0339OR       5882364-1       102             0010010002600000
21/09/2006IPSWICH         T0005           00120016RCT8299WHP      5882366-1       197             0011000006900000
21/09/2006NORWICH         T0044           00130017MPI3500         5882383-1       141             0010002003800000
21/09/2006NORWICH         T0044           00090013VER2525WSLP     5882394-1       161             0010003000200000
21/09/2006NORWICH         T0041           00130016NAV1017NS       5882409-1       103             0015000005200000
21/09/2006NORWICH         T0047           00100017DIB301503BF     5882420-1       179             0010004007400000
21/09/2006NORWICH         T0045           00160029MANUAL          ADH00000057-1   163             0010001000100000
21/09/2006IPSWICH         T0005           00170026ISC75A4         ALI688488-1     506             0011750008600000
21/09/2006IPSWICH         T0005           00100014VAN120SR2CE     ALI688500-1     670             0010250000900000
21/09/2006NORWICH         T0047           00140022IJP1601067PM    ALI688545-1     634             0010001000500000
21/09/2006IPSWICH         T0004           00020001SAT350MO        BIRI278037-1    586             0010500005700000
21/09/2006IPSWICH         T0011           00100015DUO100A4        BIRI278101-1    550             0012800018200000
21/09/2006NORWICH         T0047           000400055SP170SR2       CMI294004-1     605             0011250006400000
21/09/2006IPSWICH         T0007           00020004FCP100SR2BL     CTI93980-1      510             0011000003000000
21/09/2006IPSWICH         T0011           00110016EFL122447YE     EUI598244-1     551             0010003000600000
21/09/2006IPSWICH         T0011           00110016EFL122447BK     EUI598244-1     551             0010002000400000
21/09/2006IPSWICH         T0010           00080009ACP1209130SR    EUI598325-1     524             0010002000900000
21/09/2006IPSWICH         T0006           00070010OG66153         EUI598373-1     660             0010015000300000
21/09/2006IPSWICH         T0006           00070010OG66135         EUI598373-1     660             0010015000300000
21/09/2006IPSWICH         T0006           00120019OG66110         EUI598375-1     668             0010050000900000
21/09/2006IPSWICH         T0006           00120019OG66149         EUI598375-1     668             0010050000900000
21/09/2006IPSWICH         T0006           00120019OG66131         EUI598375-1     668             0010050000900000
21/09/2006IPSWICH         T0008           00170025OG66131         EUI598395-1     520             0010015000300000
21/09/2006IPSWICH         T0008           00170025OG66135         EUI598395-1     520             0010005000100000
21/09/2006IPSWICH         T0008           00170025OG66198         EUI598395-1     520             0010015000300000
21/09/2006IPSWICH         T0008           00170025OG66161         EUI598395-1     520             0010015000300000
21/09/2006IPSWICH         T0008           00170025OG66123         EUI598395-1     520             0010005000100000
21/09/2006IPSWICH         T0008           00170025OG66170         EUI598395-1     520             0010020000400000
21/09/2006NORWICH         T0041           00020001FPBB2TYV        GI1770214-1     589             0010150002200000
21/09/2006NORWICH         T0046           00020001EVB100A3        GI1770311-1     630             0014000005200000
21/09/2006IPSWICH         T0007           00030005REEDLNA         GI1770348-1     513             0010500000300000
21/09/2006NORWICH         T0044           00030002WTE2038         IPI413328-1     642             0011000002100000
21/09/2006IPSWICH         T0005           00140021DUO100SR2       IPI415568-1     655             0011500004500000
21/09/2006NORWICH         T0043           00040003WRB302157       IPI415573-1     611             0010500002600000
21/09/2006NORWICH         T0043           00050005SAT400SR2       IPI415575-1     579             0011500018100000
21/09/2006IPSWICH         T0008           00230033TCB400SR2       IPI415578-1     570             0010100001200000
21/09/2006IPSWICH         T0007           00140024SAT350SR2       IPI415579-1     528             0011000010600000
21/09/2006IPSWICH         T0005           000300065SB300SR2BP     IPI415580-1     663             0016000054400000
21/09/2006IPSWICH         T0009           00030004AWC80A4         IPI415581-1     565             0012500013100000
21/09/2006IPSWICH         T0009           00030004NPC80A1         IPI415581-1     565             0010001001000000
21/09/2006NORWICH         T0047           00160025CBX302222       IPI415587-1     620             0010050000500000
21/09/2006NORWICH         T0047           00160025CEN112          IPI415587-1     620             0010500000900000
21/09/2006NORWICH         T0041           00140017AWC80A4         IPI415591-1     502             0011500007900000
21/09/2006IPSWICH         T0009           00030003AWC80A4         IPI415595-1     565             0013750019700000
21/09/2006NORWICH         T0045           00020007CBPSR2MC        IPI415596-1     622             0010750004700000
21/09/2006IPSWICH         T0006           00100015QWB300SR2HW     IPI415600-1     645             0010200001800000
21/09/2006IPSWICH         T0007           00040006TCB350B1F       IPI415607-1     514             0012200059400000
21/09/2006IPSWICH         T0006           00030002MAP170SR2       IPI415610-1     658             0010750003900000
21/09/2006IPSWICH         T0011           00070010CEN046          IPI415611-1     643             0017500006700000
21/09/2006IPSWICH         T0011           00070010CEN047          IPI415611-1     643             0017500006700000
21/09/2006IPSWICH         T0011           00070009CEN046          IPI415612-1     643             0013000002700000
21/09/2006IPSWICH         T0011           00070009CEN047          IPI415612-1     643             0011500001300000
21/09/2006IPSWICH         T0009           00160021ZAFFAN          IPI415614-1     552             0010001000100000
21/09/2006IPSWICH         T0009           00160021DIS100SR2BW     IPI415614-1     552             0014500013600000
21/09/2006IPSWICH         T0009           00160021WRB302157       IPI415614-1     552             0010300001600000
21/09/2006IPSWICH         T0009           00160021BCB935835       IPI415614-1     552             0010200001000000
21/09/2006NORWICH         T0041           00080010FCP80A4PI       IPI415616-1     592             0012500001300000
21/09/2006NORWICH         T0041           00080010FCP80A4DA       IPI415616-1     592             0012500001300000
21/09/2006IPSWICH         T0011           00040005SAT350SR2       IPI415619-1     549             0010500005300000
21/09/2006NORWICH         T0045           00020002CBPSR2MC        IPI415623-1     622             0010250001600000
21/09/2006NORWICH         T0047           00050008DUC80A4         IPI415625-1     613             0011000052500010
21/09/2006NORWICH         T0042           00120015DOF100A4        IPI415626-1     581             0012000001300000
21/09/2006IPSWICH         T0009           00110014FCP80A4GO       IPI415627-1     562             0012500001300000
21/09/2006IPSWICH         T0009           00110014DOF80A4         IPI415627-1     562             0011750009200000
21/09/2006IPSWICH         T0002           00030006DOF80A4         IPI415629-1     556             0012500013100000
21/09/2006NORWICH         T0043           00040004CTB280SR2GR     IPI415630-1     611             0010200001300000
21/09/2006IPSWICH         T0005           00130017AMG80RA2BP      IPI415631-1     667             0012400052900010
21/09/2006IPSWICH         T0005           00130017TCB240SR2       IPI415631-1     667             0011000007300000
21/09/2006IPSWICH         T0005           00130017LDS115SR3       IPI415631-1     667             0011000001700000
21/09/2006IPSWICH         T0005           00130017LDG130SR3       IPI415631-1     667             0011000002000000
21/09/2006IPSWICH         T0005           00130017AMG100SR2       IPI415631-1     667             0011500045400010
21/09/2006IPSWICH         T0009           00130016AWC80A4         IPI415633-1     564             0011000052500010
21/09/2006IPSWICH         T0005           00130020LDS300SR3       IPI415635-1     667             0011000004500000
21/09/2006IPSWICH         T0005           00130020CWP70SR2        IPI415635-1     667             0016500013800000
21/09/2006IPSWICH         T0007           00070014ZAECBSR3WH      IPI415636-1     541             0011500001600000
21/09/2006IPSWICH         T0007           00070014ZAECFSR3BL      IPI415636-1     541             0011500001600000
21/09/2006IPSWICH         T0011           00090013LSB350B2        IPI415637-1     649             0012000027500000
21/09/2006IPSWICH         T0005           00070011MAP130SR1       IPI415639-1     666             0011000007900000
21/09/2006IPSWICH         T0006           00050007DUO120SR2       IPI415640-1     657             0011500005400000
21/09/2006IPSWICH         T0006           00050008CHB250B1        IPI415641-1     657             0011875036100000
21/09/2006IPSWICH         T0005           00200031CIB330SR2       IPI415642-1     511             0010400004000000
21/09/2006IPSWICH         T0005           00200031DUO80A4         IPI415642-1     511             0012500013100000
21/09/2006IPSWICH         T0005           00200031FCP80A4PI       IPI415642-1     511             0012500001300000
21/09/2006IPSWICH         T0002           00020001TCB260SR2       IPI415643-1     555             0011200009400000
21/09/2006NORWICH         T0041           00100012XSAMPLE8SP      IPI415644-1     591             0010010000000000
21/09/2006IPSWICH         T0002           00130019RTB280SR2NC     IPI415645-1     599             0010200001300000
21/09/2006IPSWICH         T0002           00130019RTB280SR2CB     IPI415645-1     599             0010200001300000
21/09/2006IPSWICH         T0011           00080011ZHP100SR2BW     IPI415648-1     651             0012500007600000
21/09/2006IPSWICH         T0005           00150023ZLB260SR2BW     IPI415649-1     653             0010300002400000
21/09/2006IPSWICH         T0001           00040008SAT350SR2       IPI415650-1     509             0012750029100000
21/09/2006IPSWICH         T0005           00040007LAB350SR2       IPI415652-1     664             0010750007900000
21/09/2006IPSWICH         T0011           00040006RKI335SR2       IPI415653-1     549             0010400004100000
21/09/2006IPSWICH         T0006           00030003CTP100SR2VE     IPI415654-1     658             0015000015100000
21/09/2006IPSWICH         T0006           00030003CWP100SR2       IPI415654-1     658             0012500007600000
21/09/2006NORWICH         T0043           00070007ILC80A3         IPI415655-1     612             0011250013100000
21/09/2006NORWICH         T0041           00170020AWC80A3         IPI415658-1     583             0012500002600000
21/09/2006IPSWICH         T0009           00040006VAN200A4VI      IPI415659-1     561             0010400000400000
21/09/2006IPSWICH         T0009           00040006VAN200A4CV      IPI415659-1     561             0010200000200000
21/09/2006IPSWICH         T0009           00080011AWC80A4         IPI415661-1     600             0015000026200000
21/09/2006IPSWICH         T0006           00040005MAB350B2        IPI415662-1     659             0011000013800000
21/09/2006IPSWICH         T0006           00040005MAB350SR2       IPI415662-1     659             0011500015900000
21/09/2006IPSWICH         T0006           00040005MAP170SR1       IPI415662-1     659             0011500015400000
21/09/2006IPSWICH         T0009           00070010VSB300SR2XW     IPI415665-1     602             0010200001800000
21/09/2006IPSWICH         T0010           00040003AWC80A4         IPI415668-1     539             0012000010500000
21/09/2006NORWICH         T0043           00060006DUC80A4         IPI415669-1     580             0012500013100000
21/09/2006NORWICH         T0043           00060006DUC80A3         IPI415669-1     580             0011250013100000
21/09/2006NORWICH         T0045           00110024ZAECBSR3WH      IPI415670-1     607             0015000005300000
21/09/2006NORWICH         T0045           00110024ZAECFSR3WH      IPI415670-1     607             0015000005300000
21/09/2006IPSWICH         T0009           00210026AWC80A4         IPI415671-1     559             0012500013100000
21/09/2006IPSWICH         T0009           00210026AWC80A3         IPI415671-1     559             0012500002600000
21/09/2006IPSWICH         T0010           00160020ILC80A3         IPI415672-1     530             0017500007900000
21/09/2006IPSWICH         T0005           00160025AWC80A3         IPI415673-1     654             0015000005200000
21/09/2006IPSWICH         T0005           00160025AWC80A4         IPI415673-1     654             0011250006600000
21/09/2006IPSWICH         T0005           00160025FCP80A3CR       IPI415673-1     654             0012500002600000
21/09/2006IPSWICH         T0005           00160025FCP80A3BL       IPI415673-1     654             0012500002600000
21/09/2006IPSWICH         T0005           00160025FCP80A3PI       IPI415673-1     654             0012500002600000
21/09/2006IPSWICH         T0005           00160025FCP80A4PI       IPI415673-1     654             0012500001300000
21/09/2006IPSWICH         T0005           00160025FCP80A4BL       IPI415673-1     654             0012500001300000
21/09/2006IPSWICH         T0005           00160025FCP80A4CR       IPI415673-1     654             0012500001300000
21/09/2006IPSWICH         T0005           00160025FCP80A4YE       IPI415673-1     654             0012500001300000
21/09/2006IPSWICH         T0005           00150024CWB230SR2       IPI415675-1     653             0010800004100000
21/09/2006IPSWICH         T0010           00060005ZAECFBA4YE      IPI415676-1     525             0011500000700000
21/09/2006NORWICH         T0041           00020002QLP100SR2HW     IPI415677-1     589             0011500004500000
21/09/2006IPSWICH         T0007           00070015DUO120SR2       IPI415678-1     541             0011000003600000
21/09/2006IPSWICH         T0008           00150020QWE1059         IPI415679-1     516             0011000000700000
21/09/2006IPSWICH         T0008           00060008SCOSR2MC        IPI415680-1     518             0011750011000000
21/09/2006IPSWICH         T0002           00110015CEN102          IPI415684-1     554             0010500001100000
21/09/2006IPSWICH         T0008           00200029CEN111          IPI415686-1     571             0010250000500000
21/09/2006IPSWICH         T0006           00170025CWP100SR2       IPI415687-1     504             0011500004500000
21/09/2006IPSWICH         T0006           00170024CWP100SR2       IPI415688-1     504             0011000003000000
21/09/2006IPSWICH         T0010           00080007NPC808417       IPI415690-1     524             0010001001200000
21/09/2006IPSWICH         T0004           00050008XBCLLS3863FO    IPI415693-1     544             0010005000000000
21/09/2006IPSWICH         T0004           00050008BCLLS3863AP     IPI415693-1     544             0010005001600000
21/09/2006IPSWICH         T0007           00130023ZAECBSR2WH      IPI415694-1     533             0010500001100000
21/09/2006IPSWICH         T0007           00130023CEN026          IPI415694-1     533             0012000001000000
21/09/2006IPSWICH         T0007           00130023CEN029          IPI415694-1     533             0013000001600000
21/09/2006NORWICH         T0046           00070006ARG115SR2BP     IPI415697-1     626             0012400083400010
21/09/2006NORWICH         T0046           00070006ARG115SR2       IPI415697-1     626             0012000007000000
21/09/2006NORWICH         T0046           00070006CIB330SR2       IPI415697-1     626             0010200002000000
21/09/2006NORWICH         T0046           00070006LAB250SR2       IPI415697-1     626             0013000022700000
21/09/2006IPSWICH         T0008           00190028WRB302157       IPI415698-1     572             0010100000500000
21/09/2006IPSWICH         T0009           00090012DGB750SR2       IPI415701-1     601             0010001002600000
21/09/2006IPSWICH         T0009           00090012QWP100SR2BW     IPI415701-1     601             0010500001500000
21/09/2006IPSWICH         T0001           00040009QCX120SR2DW     IPI415702-1     509             0010750002700000
21/09/2006IPSWICH         T0001           00040009QCX320SR2DW     IPI415702-1     509             0010300002900000
21/09/2006NORWICH         T0045           00020001CBPSR2MC        IPI415703-1     622             0010750004700000
21/09/2006IPSWICH         T0007           00080016CEN025          IPI415704-1     545             0012000001000000
21/09/2006NORWICH         T0042           00030003QLB300SR2HW     IPI415706-1     574             0010100000900000
21/09/2006NORWICH         T0042           00030003QLP100SR2HW     IPI415706-1     574             0010500001500000
21/09/2006IPSWICH         T0004           00080011CEN046          IPI415711-1     543             0013000002700000
21/09/2006IPSWICH         T0009           00120015AWC80A4         IPI415712-1     563             0012500013100000
21/09/2006IPSWICH         T0009           00120015FCB160A4SC      IPI415712-1     563             0010750000800000
21/09/2006IPSWICH         T0009           00120015FCB160A4EM      IPI415712-1     563             0010750000800000
21/09/2006IPSWICH         T0009           00120015FCB160A4PI      IPI415712-1     563             0010750000800000
21/09/2006IPSWICH         T0009           00120015FCB160A4PE      IPI415712-1     563             0010750000800000
21/09/2006IPSWICH         T0009           00130018FCP80A4LI       IPI415714-1     564             0017500003900000
21/09/2006IPSWICH         T0009           00130018FCB160A4CR      IPI415714-1     564             0010500000500000
21/09/2006IPSWICH         T0009           00130018FCB160A4OR      IPI415714-1     564             0010500000500000
21/09/2006IPSWICH         T0009           00130018FCB160A4GO      IPI415714-1     564             0010500000500000
21/09/2006IPSWICH         T0009           00130018FCB160A4GR      IPI415714-1     564             0010500000500000
21/09/2006IPSWICH         T0009           00130018FCB160A4AQ      IPI415714-1     564             0010500000500000
21/09/2006IPSWICH         T0009           00130018FCB160A4SC      IPI415714-1     564             0010500000500000
21/09/2006IPSWICH         T0009           00130018FCB160A4LA      IPI415714-1     564             0010500000500000
21/09/2006IPSWICH         T0009           00130018FCB160A4BL      IPI415714-1     564             0010500000500000
21/09/2006IPSWICH         T0009           00130018FCB160A4MA      IPI415714-1     564             0010500000500000
21/09/2006IPSWICH         T0009           00130018FCB160A4YE      IPI415714-1     564             0010500000500000
21/09/2006IPSWICH         T0009           00130018FCP80A4AQ       IPI415714-1     564             0015000002600000
21/09/2006IPSWICH         T0009           00130018FCB160A4PI      IPI415714-1     564             0010500000500000
21/09/2006IPSWICH         T0009           00130018FCB160A4EM      IPI415714-1     564             0010500000500000
21/09/2006IPSWICH         T0009           00130018FCB160A4SN      IPI415714-1     564             0012000002100000
21/09/2006IPSWICH         T0009           00130018ZAE2PA4WB       IPI415714-1     564             0010004000900000
21/09/2006IPSWICH         T0009           00130018FCP80A4OR       IPI415714-1     564             0012500001300000
21/09/2006IPSWICH         T0009           00130018FCP80A4YE       IPI415714-1     564             0015000002600000
21/09/2006IPSWICH         T0009           00130018FCP80A4PI       IPI415714-1     564             0015000002600000
21/09/2006IPSWICH         T0009           00130018FCP80A4BL       IPI415714-1     564             0017500003900000
21/09/2006IPSWICH         T0009           00130018FCP80A4PE       IPI415714-1     564             0017500003900000
21/09/2006IPSWICH         T0009           00130018FCP80A4CR       IPI415714-1     564             0015000002600000
21/09/2006IPSWICH         T0009           00130018FCP80A4GR       IPI415714-1     564             0015000002600000
21/09/2006IPSWICH         T0010           00100011AWC80A4         IPI415716-1     523             0011250006600000
21/09/2006IPSWICH         T0010           00100011DUC80A4         IPI415716-1     523             0011000005200000
21/09/2006IPSWICH         T0004           00030005QLP100SR2VE     IPI415717-1     585             0010500001500000
21/09/2006IPSWICH         T0004           00030005RKI335SR2       IPI415717-1     585             0010200002000000
21/09/2006IPSWICH         T0005           00110015DOF90A4         IPI415718-1     671             0015000002900000
21/09/2006IPSWICH         T0005           00110015CEN023          IPI415718-1     671             0011000005200000
21/09/2006IPSWICH         T0006           00040004CWP100SR1BP     IPI415719-1     659             0012700163300020
21/09/2006IPSWICH         T0006           00040004CWP100SR1       IPI415719-1     659             0014000024200000
21/09/2006IPSWICH         T0011           00090014LSB350SR2       IPI415720-1     649             0013000031800000
21/09/2006IPSWICH         T0005           00140022RKI280SR2       IPI415721-1     655             0010500004200000
21/09/2006NORWICH         T0046           00180022EVB80A4         IPI415723-1     632             0012500013100000
21/09/2006IPSWICH         T0010           00030002CEN022          IPI415725-1     540             0012000001000000
21/09/2006NORWICH         T0046           00140017QLP100A4VE      IPI415728-1     625             0012500001600000
21/09/2006NORWICH         T0046           00140017QLB300SR2VE     IPI415728-1     625             0010100000900000
21/09/2006IPSWICH         T0001           00040006CWP115SR2       IPI415729-1     509             0011000003500000
21/09/2006IPSWICH         T0007           00070011MAP130SR2       IPI415731-1     541             0011500005900000
21/09/2006IPSWICH         T0008           00080010ZAECFSR3YE      IPI415732-1     507             0010500000500000
21/09/2006IPSWICH         T0008           00080010CEN106          IPI415732-1     507             0012000004200000
21/09/2006IPSWICH         T0007           00150025FCP80A4BL       IPI415733-1     527             0012500001300000
21/09/2006IPSWICH         T0008           00070009SAT150SR2       IPI415735-1     519             0011000004500000
21/09/2006IPSWICH         T0008           00070009SAT250SR2       IPI415735-1     519             0010250001900000
21/09/2006IPSWICH         T0006           00110018DOF90SR2        IPI415736-1     646             0011000002700000
21/09/2006IPSWICH         T0005           00060010QWP100A4HW      IPI415737-1     665             0017500004900000
21/09/2006NORWICH         T0041           00200023VSP100SR2XW     IPI415738-1     576             0010500001500000
21/09/2006IPSWICH         T0009           00100013LAP150SR2       IPI415739-1     603             0010500002300000
21/09/2006IPSWICH         T0009           00100013DUD100SR2       IPI415739-1     603             0010500001500000
21/09/2006IPSWICH         T0009           00100013GPM130SR2       IPI415739-1     603             0011500005900000
21/09/2006IPSWICH         T0009           00100013QWE1089         IPI415739-1     603             0010250000300000
21/09/2006IPSWICH         T0011           00090012LSB350SR2       IPI415740-1     649             0011000010600000
21/09/2006NORWICH         T0047           00040007EVO80A4         IPI415741-1     605             0011000052500010
21/09/2006NORWICH         T0047           000400075SB350SR2       IPI415741-1     605             0010625006600000
21/09/2006NORWICH         T0047           000400075SP100SR2       IPI415741-1     605             0010500001500000
21/09/2006NORWICH         T0047           00040007CWB230SR2       IPI415741-1     605             0010600003100000
21/09/2006IPSWICH         T0006           00100016SAT400SR2       IPI415743-1     645             0011250015100000
21/09/2006IPSWICH         T0006           00100016QCX320SR2BW     IPI415743-1     645             0010300002900000
21/09/2006IPSWICH         T0007           00160026DOF80A4         IPI415744-1     529             0012500013100000
21/09/2006IPSWICH         T0009           00180023DUO80A4         IPI415745-1     598             0015000026200000
21/09/2006IPSWICH         T0009           00180023DUO80A3         IPI415745-1     598             0012500002600000
21/09/2006IPSWICH         T0009           00180023FCB160A4BL      IPI415745-1     598             0011250001300000
21/09/2006IPSWICH         T0009           00180023FCP80A4GR       IPI415745-1     598             0012500001300000
21/09/2006IPSWICH         T0009           00180023FCP80A4PI       IPI415745-1     598             0015000002600000
21/09/2006IPSWICH         T0005           00040008LAB300SR2       IPI415750-1     664             0010375003400000
21/09/2006IPSWICH         T0005           00040008LSB350SR2       IPI415750-1     664             0010375004000000
21/09/2006IPSWICH         T0008           00060007CHP170SR2       IPI415752-1     518             0010250001300000
21/09/2006IPSWICH         T0008           00060007RKI335SR2       IPI415752-1     518             0010100001000000
21/09/2006IPSWICH         T0008           00060007CWB230SR2       IPI415752-1     518             0010200001000000
21/09/2006NORWICH         T0046           00110014VAN380SR2CV     IPI415753-1     624             0010100000900000
21/09/2006NORWICH         T0046           00110014ZAECBSR2WH      IPI415753-1     624             0011000002100000
21/09/2006NORWICH         T0046           00110014MAB300SR2BP     IPI415753-1     624             0011400127000010
21/09/2006NORWICH         T0046           00110014XCEN049         IPI415753-1     624             0011000000800000
21/09/2006IPSWICH         T0010           00020001LSP170SR2       IPI415754-1     604             0010500002600000
21/09/2006IPSWICH         T0010           00020001DOF80SR2BP      IPI415754-1     604             0012200053100010
21/09/2006NORWICH         T0042           00090011QCX120SR2DW     IPI415756-1     593             0011500005400000
21/09/2006NORWICH         T0042           00090011TBT500SR2       IPI415756-1     593             0010200003000000
21/09/2006NORWICH         T0043           00020001VAN380SR2CV     IPI415757-1     610             0010200001800000
21/09/2006IPSWICH         T0007           00090017CTB200SR2BL     IPI415758-1     546             0010200000900000
21/09/2006IPSWICH         T0002           00030004LAP150SR2       IPI415759-1     556             0011000004500000
21/09/2006IPSWICH         T0004           00150019CEN106          IPI415760-1     535             0011000002100000
21/09/2006IPSWICH         T0004           00150019CEN025          IPI415760-1     535             0015000002600000
21/09/2006IPSWICH         T0004           00150019CEN026          IPI415760-1     535             0013000001600000
21/09/2006NORWICH         T0045           00090021RKI335SR2       IPI415762-1     618             0010100001000000
21/09/2006NORWICH         T0045           00090021CWB280A4        IPI415762-1     618             0011000001400000
21/09/2006IPSWICH         T0006           00060009CEN057          IPI415764-1     656             0011000000900000
21/09/2006IPSWICH         T0005           00130018LDS115SR3       IPI415765-1     667             0010500000900000
21/09/2006IPSWICH         T0007           00070012CBX302222       IPI415767-1     541             0010400004200000
21/09/2006IPSWICH         T0007           00070012LSP115SR2       IPI415767-1     541             0010500001700000
21/09/2006IPSWICH         T0007           00070012LSB200SR2       IPI415767-1     541             0010500003000000
21/09/2006NORWICH         T0043           00030002FCB160A4SN      IPI415768-1     636             0011250001300000
21/09/2006NORWICH         T0043           00030002FCB160A4CR      IPI415768-1     636             0010250000300000
21/09/2006IPSWICH         T0002           00090013DOF80A4         IPI415769-1     569             0012500001300000
21/09/2006IPSWICH         T0002           00090013MSU105A3        IPI415769-1     569             0012000002800000
21/09/2006IPSWICH         T0002           00090013MSU105A4        IPI415769-1     569             0012500001700000
21/09/2006IPSWICH         T0002           00090013CEN106          IPI415769-1     569             0010500001000000
21/09/2006IPSWICH         T0002           00090013MAP170SR2       IPI415769-1     569             0010750003900000
21/09/2006IPSWICH         T0002           00090013MAP150B1BP      IPI415769-1     569             0016500075200010
21/09/2006IPSWICH         T0002           00090013MAP150B1        IPI415769-1     569             0012500028900000
21/09/2006IPSWICH         T0002           00090013SAT300B2        IPI415769-1     569             0013250038300000
21/09/2006IPSWICH         T0002           00090013MAP130SR2       IPI415769-1     569             0010500002000000
21/09/2006IPSWICH         T0011           00120017AWC80A3         IPI415770-1     548             0017500007900000
21/09/2006NORWICH         T0042           00070009VAN230SR2RE     IPI415771-1     577             0010200001100000
21/09/2006NORWICH         T0042           00070009CVW100SR2NA     IPI415771-1     577             0010250000800000
21/09/2006IPSWICH         T0004           00100013NCC300A4        IPI415772-1     537             0010625001200000
21/09/2006NORWICH         T0045           00130026AMG120SR2       IPI415773-1     635             0010250000900000
21/09/2006IPSWICH         T0005           00080012AWC80A4         IPI415775-1     662             0013000015800000
21/09/2006IPSWICH         T0007           00020002LAP150SR2       IPI415776-1     510             0011500006800000
21/09/2006IPSWICH         T0007           00020002LAP170SR2       IPI415776-1     510             0010500002600000
21/09/2006IPSWICH         T0009           00070009NCC160SR3       IPI415777-1     602             0015000012100000
21/09/2006IPSWICH         T0004           00020002CHB300SR2       IPI415778-1     586             0011000009100000
21/09/2006IPSWICH         T0009           00020001CHP150SR2       IPI415779-1     566             0011000004500000
21/09/2006NORWICH         T0045           00020003CBPSR2MC        IPI415780-1     622             0010250001600000
21/09/2006NORWICH         T0045           00150028LAP130SR2       IPI415781-1     609             0011000003900000
21/09/2006IPSWICH         T0004           00090012CEN057          IPI415782-1     542             0013000002700000
21/09/2006NORWICH         T0044           00070008RKI350SR2       IPI415784-1     638             0010200002100000
21/09/2006NORWICH         T0044           00070008CEN121          IPI415784-1     638             0010250000700000
21/09/2006NORWICH         T0044           00070008CEN013          IPI415784-1     638             0011000000400000
21/09/2006IPSWICH         T0008           00240034FCP80A4GR       IPI415786-1     588             0017500003900000
21/09/2006IPSWICH         T0008           00240034FCP80A4BL       IPI415786-1     588             0015000002600000
21/09/2006IPSWICH         T0008           00240034FCP80A4LI       IPI415786-1     588             0015000002600000
21/09/2006IPSWICH         T0008           00240034FCP80A4YE       IPI415786-1     588             0015000002600000
21/09/2006IPSWICH         T0008           00240034FCP80A4LA       IPI415786-1     588             0015000002600000
21/09/2006IPSWICH         T0008           00240034AWC80A4         IPI415786-1     588             0015000026200000
21/09/2006IPSWICH         T0008           00240034FCP80A4GO       IPI415786-1     588             0011000005200000
21/09/2006IPSWICH         T0008           00240034FCP80A4PI       IPI415786-1     588             0011000005200000
21/09/2006IPSWICH         T0008           00240034FCB160A4SN      IPI415786-1     588             0012500002600000
21/09/2006NORWICH         T0045           00070019FCP120SR2PE     IPI415787-1     617             0010250000900000
21/09/2006IPSWICH         T0006           00080011BCLLS6799       IPI415788-1     661             0010006001900000
21/09/2006IPSWICH         T0010           00080008DOF100A4        IPI415790-1     524             0012000001300000
21/09/2006IPSWICH         T0010           00080008DOF100A3        IPI415790-1     524             0012000002600000
21/09/2006IPSWICH         T0006           00090013UPS2767EP480A4  IPI415791-1     644             0011000052500010
21/09/2006IPSWICH         T0006           00090013DUO80A4         IPI415791-1     644             0011500007900000
21/09/2006IPSWICH         T0002           00140020CIB400SR2       IPI415792-1     584             0010100001200000
21/09/2006IPSWICH         T0002           00140020LAP150SR2       IPI415792-1     584             0010500002300000
21/09/2006IPSWICH         T0002           00140020LAP150B2        IPI415792-1     584             0011500008900000
21/09/2006IPSWICH         T0002           00140020CEN103          IPI415792-1     584             0011000002200000
21/09/2006NORWICH         T0045           00020004LAB350SR2BP     IPI415794-1     622             0017000074100010
21/09/2006NORWICH         T0045           00020004LAB350SR2       IPI415794-1     622             0015000052900000
21/09/2006IPSWICH         T0009           00050007QWP100SR2DW     IPI415795-1     560             0010500001500000
21/09/2006IPSWICH         T0009           00050007QWP100SR2CR     IPI415795-1     560             0010500001500000
21/09/2006IPSWICH         T0009           00050007QWB300SR2CR     IPI415795-1     560             0010100000900000
21/09/2006IPSWICH         T0009           00050007VSB330SR2XW     IPI415795-1     560             0010200002000000
21/09/2006NORWICH         T0044           00050004QWE1530         IPI415796-1     637             0010500000400000
21/09/2006NORWICH         T0045           00020005CBPSR2MC        IPI415797-1     622             0010500003100000
21/09/2006IPSWICH         T0009           00150020CEN046          IPI415798-1     553             0010500000400000
21/09/2006IPSWICH         T0009           00150020CEN026          IPI415798-1     553             0011000000500000
21/09/2006IPSWICH         T0002           00070011MAP150SR2       IPI415799-1     567             0010500002300000
21/09/2006IPSWICH         T0002           00070011CWP80SR2        IPI415799-1     567             0011000002400000
21/09/2006IPSWICH         T0002           00070011SCOSR2VX        IPI415799-1     567             0010750004500000
21/09/2006NORWICH         T0047           00090014NCC200A3        IPI415800-1     633             0012000005200000
21/09/2006NORWICH         T0041           00110014VSP100SR2NA     IPI415801-1     590             0012000006000000
21/09/2006NORWICH         T0041           00110014LSB350SR2       IPI415801-1     590             0011250013200000
21/09/2006IPSWICH         T0002           00140021NCC100A3P       IPI415802-1     584             0012000002900000
21/09/2006IPSWICH         T0008           00050005BCLLS3499       IPI415803-1     517             0010006001900000
21/09/2006IPSWICH         T0008           00050005AMG100SR2       IPI415803-1     517             0016000018100000
21/09/2006IPSWICH         T0008           00050005LAP150SR2       IPI415803-1     517             0011500006800000
21/09/2006IPSWICH         T0008           00050005ZAECBSR3WH      IPI415803-1     517             0011000001100000
21/09/2006IPSWICH         T0008           00050005ZAECFBSR3BL     IPI415803-1     517             0011000001100000
21/09/2006IPSWICH         T0008           00050005ZAECFBSR3GR     IPI415803-1     517             0011000001100000
21/09/2006IPSWICH         T0008           00050005ZAECFSR3YE      IPI415803-1     517             0011000001100000
21/09/2006IPSWICH         T0008           00050005LSP170SR2       IPI415803-1     517             0010500002600000
21/09/2006IPSWICH         T0008           00050005LSB250SR2       IPI415803-1     517             0010250001900000
21/09/2006IPSWICH         T0011           00030004SAT250SR2BP     IPI415805-1     547             0018500064300010
21/09/2006IPSWICH         T0011           000300048SP115SR2       IPI415805-1     547             0011450050400000
21/09/2006NORWICH         T0047           00140023QLB300SR2OY     IPI415806-1     634             0010100000900000
21/09/2006NORWICH         T0044           00100014CHB250SR2       IPI415807-1     616             0011000007600000
21/09/2006NORWICH         T0043           00080008ZAECFBA4GR      IPI415809-1     615             0012500001200000
21/09/2006IPSWICH         T0004           00150020QWP100SR2OY     IPI415810-1     535             0010500001500000
21/09/2006NORWICH         T0044           00080009CLP8023         IPI415811-1     640             0012000000900000
21/09/2006NORWICH         T0044           00080009DOF100A4        IPI415811-1     640             0012000001300000
21/09/2006NORWICH         T0044           00080009CEN047          IPI415811-1     640             0011000000900000
21/09/2006NORWICH         T0044           00080009CEN113          IPI415811-1     640             0010250000600000
21/09/2006NORWICH         T0044           00080009CEN026          IPI415811-1     640             0012000001000000
21/09/2006IPSWICH         T0007           001200225GP100SR2       IPI415812-1     532             0011500004500000
21/09/2006NORWICH         T0046           001700218SP150SR2       IPI415813-1     629             0011750007900000
21/09/2006NORWICH         T0046           00170021EVB100SR2       IPI415813-1     629             0012000006000000
21/09/2006IPSWICH         T0008           00040003GPM90SR1BP      IPI415815-1     515             0012000108800010
21/09/2006NORWICH         T0046           00050004ZAECBA4WH       IPI415816-1     627             0010500000200000
21/09/2006NORWICH         T0046           00050004ZAECFBA4BL      IPI415816-1     627             0010500000200000
21/09/2006IPSWICH         T0009           00020002QWB300SR2CR     IPI415818-1     566             0010100000900000
21/09/2006IPSWICH         T0009           00020002ZAECFBA4YE      IPI415818-1     566             0012500001200000
21/09/2006IPSWICH         T0009           00020002ZAECFA4PI       IPI415818-1     566             0012500001200000
21/09/2006IPSWICH         T0009           00020002ZAECBA4WH       IPI415818-1     566             0015000002300000
21/09/2006IPSWICH         T0009           00020002ZAECFA4BL       IPI415818-1     566             0015000002300000
21/09/2006IPSWICH         T0009           00020002CTB230SR2VE     IPI415818-1     566             0013800019600000
21/09/2006IPSWICH         T0001           00040007SAT170SR2       IPI415819-1     509             0010250001300000
21/09/2006IPSWICH         T0001           00040007SAT200SR2       IPI415819-1     509             0010250001500000
21/09/2006IPSWICH         T0001           00040007SAT350SR2       IPI415819-1     509             0010125001300000
21/09/2006IPSWICH         T0005           00190030FCB160A4SC      IPI415820-1     512             0011250001300000
21/09/2006NORWICH         T0042           00100013BCB935835       IPI415825-1     594             0010100000500000
21/09/2006NORWICH         T0042           00100013VSB250SR2XW     IPI415825-1     594             0010200001500000
21/09/2006IPSWICH         T0010           00110012SAT300SR2       IPI415826-1     526             0012000018100000
21/09/2006IPSWICH         T0010           00110012MAP170SR2       IPI415826-1     526             0014750024400000
21/09/2006IPSWICH         T0010           00110012SAT130SR2       IPI415826-1     526             0011000003900000
21/09/2006IPSWICH         T0010           00110012MAP150SR2       IPI415826-1     526             0011500006800000
21/09/2006IPSWICH         T0010           00110012SAT150B2        IPI415826-1     526             0015000029500000
21/09/2006IPSWICH         T0006           00100017SAT300SR3       IPI415827-1     645             0013500015900000
21/09/2006IPSWICH         T0008           00020001ZAECBSR2WH      IPI415828-1     521             0011000002100000
21/09/2006IPSWICH         T0008           00020001ZAECFBSR2YE     IPI415828-1     521             0010500001100000
21/09/2006IPSWICH         T0008           00020001ZAECFSR2PI      IPI415828-1     521             0010500001100000
21/09/2006IPSWICH         T0008           00020001MSS105SR2       IPI415828-1     521             0010500001600000
21/09/2006IPSWICH         T0008           00020001SAT350SR2       IPI415828-1     521             0010375004000000
21/09/2006IPSWICH         T0007           00020003GPM90SR2        IPI415830-1     510             0019000024500000
21/09/2006IPSWICH         T0003           00020001RTB280SR2AB     IPI415832-1     587             0010200001300000
21/09/2006IPSWICH         T0011           00050007MAB200MO        IPI415834-1     647             0011000006600000
21/09/2006IPSWICH         T0008           00140019DOF100SR2       IPI415835-1     503             0011000003000000
21/09/2006IPSWICH         T0008           00140019QWP100SR2OY     IPI415835-1     503             0010500001500000
21/09/2006IPSWICH         T0008           00140019NCC100A3        IPI415835-1     503             0012000002600000
21/09/2006NORWICH         T0041           00050006AWC80A4         IPI415836-1     596             0011000052500010
21/09/2006IPSWICH         T0002           00080012ADV75A4         IPI415838-1     568             0012500001200000
21/09/2006NORWICH         T0041           00160019CEN014          IPI415840-1     501             0011200005000000
21/09/2006IPSWICH         T0002           00030005SAT350B2        IPI415841-1     556             0012500034400000
21/09/2006IPSWICH         T0002           00030005CEN057          IPI415841-1     556             0012000001800000
21/09/2006IPSWICH         T0002           00030005QWP100SR2HW     IPI415841-1     556             0011500004500000
21/09/2006IPSWICH         T0002           00030005CEN101          IPI415841-1     556             0015500009500000
21/09/2006IPSWICH         T0010           00050004CWB200SR2BP     IPI415842-1     538             0011080048800010
21/09/2006IPSWICH         T0010           00050004CEN022          IPI415842-1     538             0012000001000000
21/09/2006NORWICH         T0047           00060009CEN055          IPI415843-1     614             0015000005200000
21/09/2006IPSWICH         T0004           00130017CWB380SR2       IPI415844-1     536             0010100000900000
21/09/2006NORWICH         T0041           00040004ZLP100SR2BW     IPI415845-1     595             0010250000800000
21/09/2006NORWICH         T0041           00040004KKC80A4         IPI415845-1     595             0012500001300000
21/09/2006IPSWICH         T0008           00060006AWC80A4         IPI415846-1     518             0012500013100000
21/09/2006IPSWICH         T0008           00060006AWC80A3         IPI415846-1     518             0012500002600000
21/09/2006IPSWICH         T0008           00030002AWC80A4         IPI415847-1     522             0011000052500010
21/09/2006IPSWICH         T0005           00090013CWB200A4        IPI415848-1     652             0011250001200000
21/09/2006IPSWICH         T0008           00100014ZAECBA4WH       IPI415849-1     508             0012500001200000
21/09/2006IPSWICH         T0008           00100014ZAECFBA4YE      IPI415849-1     508             0012500001200000
21/09/2006IPSWICH         T0008           00100014ZAECFBA4PI      IPI415849-1     508             0012500001200000
21/09/2006IPSWICH         T0008           00100014ZAECFBA4BL      IPI415849-1     508             0012500001200000
21/09/2006IPSWICH         T0008           00100014VAN380SR2CV     IPI415849-1     508             0010100000900000
21/09/2006IPSWICH         T0008           00100014QWP100SR2HW     IPI415849-1     508             0011000003000000
21/09/2006NORWICH         T0047           00150024PIP100SR2       IPI415851-1     619             0016000018100000
21/09/2006NORWICH         T0047           00150024LSP130SR1       IPI415851-1     619             0011000007900000
21/09/2006NORWICH         T0047           00150024QCT300SR2BW     IPI415851-1     619             0010700006400000
21/09/2006NORWICH         T0046           00030002CTP80SR2GR      IPI415852-1     628             0013000007200000
21/09/2006NORWICH         T0046           00030002CHW100SR2       IPI415852-1     628             0010500001500000
21/09/2006IPSWICH         T0007           00040007LSB300SR1       IPI415853-1     514             0011000018100000
21/09/2006IPSWICH         T0007           00040007LSP115SR2       IPI415853-1     514             0011500005200000
21/09/2006NORWICH         T0044           00040003NCC100A4        IPI415854-1     641             0011000006500000
21/09/2006IPSWICH         T0011           00060008CEN163          IPI415855-1     648             0010750003900000
21/09/2006IPSWICH         T0011           00060008ILC80A3         IPI415855-1     648             0011000010500000
21/09/2006IPSWICH         T0006           00090012UPS2767EP480A4  IPI415858-1     644             0011000052500010
21/09/2006NORWICH         T0042           00020002AWC80A3         IPI415859-1     575             0015000005200000
21/09/2006NORWICH         T0045           00100022VAN380SR2IV     IPI415860-1     608             0010100000900000
21/09/2006NORWICH         T0042           00020001NPC80A2         IPI415861-1     575             0010001001000000
21/09/2006NORWICH         T0042           00060008LAB300B2        IPQ35740-1      578             0012250026500000
21/09/2006NORWICH         T0046           00150018FLA320B1SW      IPQ35756-1      623             0010100002400000
21/09/2006NORWICH         T0044           00080010XEME105         IPQ35761-1      640             0013000000300000
21/09/2006IPSWICH         T0006           00130020NCC120A3        IPQ35763-1      669             0012000003200000
21/09/2006IPSWICH         T0010           00170024ZLB260SR2       IPQ35768-1      531             0010100000800000
21/09/2006IPSWICH         T0010           00170022ZAECFSR3WH      IPQ35769-1      531             0011000001100000
21/09/2006IPSWICH         T0010           00170023ZAECFSR3WH      IPQ35770-1      531             0011000001100000
21/09/2006NORWICH         T0047           00020001ZLB260B1LY      LDNI591693-1    606             0010100001900000
21/09/2006IPSWICH         T0002           00030007QCP110SR2SWUW   LDNI598913-1    556             0010500001700000
21/09/2006IPSWICH         T0010           00160021ZLEDLBWPS       LDNI599593-1    530             0011000000500000
21/09/2006IPSWICH         T0002           00130017RTB280SR2AG     LDNI599707-1    599             0010200001300000
21/09/2006IPSWICH         T0007           00070013VRP120SR2XW     LDNI599712-1    541             0011000003600000
21/09/2006IPSWICH         T0002           00130018RTB280SR2CB     LDNI599713-1    599             0010200001300000
21/09/2006IPSWICH         T0002           00130018XCUTTINGMPC     LDNI599713-1    599             0010001000000000
21/09/2006NORWICH         T0041           00100013QWB350SR2BW     LDNI599843-1    591             0010100000900000
21/09/2006NORWICH         T0042           00090012ZLB350SR2BW     LDNI599918-1    593             0010200002100000
21/09/2006NORWICH         T0046           001700208SB300SR2       LDNI600013-1    629             0012625023800000
21/09/2006NORWICH         T0041           00070009MMB200B2        LDNI600016-1    597             0011000007900000
21/09/2006IPSWICH         T0008           00100013QLP120B1DW      LDNI600056-1    508             0010500004400000
21/09/2006NORWICH         T0047           00170026VAN100SR2BU     LWI463924-1     621             0010500001500000
21/09/2006IPSWICH         T0004           00020004AMP100SR2       LWI464096-1     586             0011000003000000
21/09/2006IPSWICH         T0001           00030005CEN150          LWI464098-1     505             0011000004000000
21/09/2006NORWICH         T0046           00110013SRC370SR2       LWI464116-1     624             0010300003400000
21/09/2006NORWICH         T0045           00020006LSP170SR1       LWI464162-1     622             0011000010300000
21/09/2006IPSWICH         T0008           00220032SGI135A4        LWI464168-1     573             0012000001800000
21/09/2006IPSWICH         T0002           00020002CWB280SR2       LWI464200-1     555             0013000018900000
21/09/2006IPSWICH         T0006           00040006AMG110SR1       LWI464212-1     659             0015500036600000
21/09/2006IPSWICH         T0009           00130017FCP100A4PI      LWI464275-1     564             0012000001300000
21/09/2006IPSWICH         T0010           00190026UPS4499FBS90SR1 LWI464294-1     534             0016000032600000
21/09/2006IPSWICH         T0008           00080011CWB280SR2       LWI464297-1     507             0010200001300000
21/09/2006NORWICH         T0047           00040006CWB200SR2       LWI464314-1     605             0010200000900000
21/09/2006IPSWICH         T0007           00090018CWB200SR2       LWI464332-1     546             0012000009000000
21/09/2006NORWICH         T0046           00200025BONM50100       LWI464349-1     631             0010001000300000
21/09/2006IPSWICH         T0002           00040008BOND2254        LWI464358-1     557             0010001000300000
21/09/2006IPSWICH         T0002           00040008BOND3362        LWI464358-1     557             0010001000300000
21/09/2006NORWICH         T0047           00090015NCC200A4        LWI464372-1     633             0011250001600000
21/09/2006IPSWICH         T0011           000300038SP115SR2BP     LWI464382-1     547             0012000069500010
21/09/2006IPSWICH         T0008           00040004GPM90SR1        LWI464396-1     515             0017000038100000
21/09/2006IPSWICH         T0007           00020001GPM90SR2BP      LWI464402-1     510             0016300171300010
21/09/2006IPSWICH         T0008           00140018CWB280SR2       LWI464426-1     503             0010200001300000
21/09/2006NORWICH         T0041           00050007VAN230A4JA      LWI464430-1     596             0010200000200000
21/09/2006IPSWICH         T0002           00030003CEN058          LWI464434-1     556             0013500004200000
21/09/2006NORWICH         T0044           00020001GPM90B1BP       LWI464435-1     639             0013000208200020
21/09/2006NORWICH         T0041           00040005FCB160SR2BL     LWI464443-1     595             0010250001200000
21/09/2006IPSWICH         T0006           00100014CEN021          MJI611529-1     645             0014000002100000
21/09/2006NORWICH         T0044           00060007TKS1128BPCQ     NO50001-1       187             0012900100800010
21/09/2006NORWICH         T0047           00080013HGP2843         NO50002-1       177             0011000006700000
21/09/2006IPSWICH         T0009           00030005CIR90610U       SHI543156-1     565             0010002001100000
21/09/2006IPSWICH         T0004           00020003CBX433022       SHI543251-1     586             0010200001000000
21/09/2006IPSWICH         T0001           00030004DGB510SR1       SHI543299-1     505             0010004010500000
21/09/2006IPSWICH         T0005           00130019AMG80RA2BP      SHI543402-1     667             0012400052900010
21/09/2006NORWICH         T0041           00180021FCB200A4SN      SHI543450-1     582             0011000001300000
21/09/2006IPSWICH         T0002           00050009CBX433022       SHI543452-1     558             0010100000500000
21/09/2006NORWICH         T0045           00100023CBX433022       SHI543516-1     608             0010100000500000
21/09/2006IPSWICH         T0006           00140021VFSX00652       SL03427-1       192             0011050074200010
